:100000000C9434000C9449000C9449000C94490061
:100010000C9449000C9449000C9449000C9449003C
:100020000C9449000C9449000C9449000C9449002C
:100030000C9449000C9449000C9449000C9449001C
:100040000C9449000C9449000C9449000C9449000C
:100050000C9449000C9449000C9449000C944900FC
:100060000C9449000C94490011241FBECFEFD8E036
:10007000DEBFCDBF11E0A0E0B1E0E0E1F4E002C0FE
:1000800005900D92A035B107D9F70E947B010C9421
:1000900006020C9400008FEF84B98FE087B91AB87C
:1000A000089514BC84E085BD82EC86BDA89BFECF7C
:1000B00085B3816085BB08951F93CF93DF93C82FCD
:1000C000D0E010E009C00E9451001C1302C0DF5FA5
:1000D00002C01C2FD0E09C2FD730A8F3892FDF91CE
:1000E000CF911F910895BF92CF92DF92EF92FF922E
:1000F0000F931F93CF93DF93CDB7DEB72C970FB637
:10010000F894DEBF0FBECDBF8CE0E1E0F1E0DE0190
:10011000119601900D928A95E1F780E78BB9C12C79
:10012000D12C42C08FE088B928B181E090E00E2C3C
:1001300002C0880F991F0A94E2F78095822388B93C
:1001400000E010E023C029B1A8014C5F5F4F81E0BF
:1001500090E002C0880F991F4A95E2F782230E941F
:100160005C00811111C0F701EE0FFF1FEE0DFF1DA6
:1001700081E090E08C0F9D1FE80FF91FE00FF11F49
:10018000B080CC24C394D12C0F5F1F4F03301105D6
:10019000D4F29FEFE91AF90A02C0E12CF12C84E0B5
:1001A000E816F1040CF4BECFC114D104B1F38B2DC9
:1001B0002C960FB6F894DEBF0FBECDBFDF91CF9166
:1001C0001F910F91FF90EF90DF90CF90BF90089517
:1001D00082E085BD80EB86BDA89BFECF81E085BB1C
:1001E000089584E085BD89E986BDA89BFECF81E0A6
:1001F00085BB0895CF93C82F611104C085B18E7F50
:1002000085B903C085B1816085B985B18F7085B925
:1002100085B19C2F907F892B85B985B1826085B986
:1002200085B18D7F85B90E94E80085B18F7085B951
:1002300085B1C295C07FC82BC5B985B1826085B92B
:1002400085B18D7F85B90E94E800CF91089585B171
:100250008E7F85B985B18F7085B985B1806285B98A
:1002600085B1826085B985B18D7F85B90E94E8002E
:1002700060E088E20E94FA0060E086E00E94FA00F6
:1002800060E08CE00E94FA0008950F931F93CF93D3
:100290008C01C0E004C061E00E94FA00CF5FF80169
:1002A000EC0FF11D80818111F6CFCF911F910F913D
:1002B000089561E00E94FA00089560E081E00E94E4
:1002C000FA000E94F10008950F931F93CF93DF93DC
:1002D0008C01EB010E945D01C8010E94450160E0B4
:1002E00080EC0E94FA00CE010E944501DF91CF917F
:1002F0001F910F9108950E944B000E9427011092B8
:10030000800085E080938100809100018130A1F020
:1003100018F08230D1F0F8CF0E945D018DE091E0BD
:100320000E9445010E947300833271F781E00E94B0
:10033000AC0180930001E8CF67E171E08EE191E0CC
:100340000E9464010E94B601FFCF6DE271E08DE36F
:1003500091E00E946401FFCF813029F40E94F101F5
:1003600081E090E0089580E090E008950F931F935E
:10037000CF93DF9300D000D0CDB7DEB700E010E020
:1003800011C00E9473008A3269F0833259F0E1E0B3
:10039000F0E0EC0FFD1FE00FF11F80830E94590178
:1003A0000F5F1F4F0430110564F30E947300833206
:1003B00079F46BE471E0CE0101960E94FD01892B76
:1003C00021F481E60E94590103C082E60E9459018E
:1003D0000F900F900F900F90DF91CF911F910F9181
:1003E000089585EE98E49093850080938400B09BF7
:1003F000FECF86B3816086BB0895FB01DC018D9141
:10040000019080190110D9F3990B0895F894FFCF4A
:10041000013132333435363738392A3023444553A5
:100420004C494741444F0053656E68613A00446946
:100430006769746520612073656E68610070726120
:100440007A6F20332D4573746F726E6F00312D41BA
:1004500020566973746120322D41003132333400EB
:00000001FF
