:100000000C9443000C9460000C9460000C9460000D
:100010000C9460000C9460000C9460000C946000E0
:100020000C9460000C9460000C9460000C946000D0
:100030000C9460000C94790C0C9460000C9460009B
:100040000C9460000C9460000C94A20B0C94600063
:100050000C9460000C9460000C9460000C946000A0
:100060000C9460000C946000A502B702BE02CB02A3
:10007000CE02D702E002E502E802EB02F002F5024E
:10008000F802FF02060311241FBECFEFD8E0DEBF47
:10009000CDBF14E0A0E0B1E0EAE1FDE102C00590CF
:1000A0000D92AA37B107D9F724E0AAE7B4E001C05E
:1000B0001D92A73DB207E1F70E948E020C948B0EB1
:1000C0000C94000014BC109280001092B00084E0E8
:1000D000809381008CED9BE0909385008093840059
:1000E0007894EFE6F0E08081816080838FEF84B9BF
:1000F0008FE087B91AB80895909398048093970475
:1001000070939404609393045093AE044093AD04B1
:100110000895909382048093810470938404609383
:1001200083045093B0044093AF040895EFE9F4E0E2
:1001300010821182128213821582148281E090E073
:1001400097838683E1EBF4E010821182128213829E
:10015000158214829783868340E050E06EE170E060
:1001600088E090E00E947C0046EE57E063E070E09B
:1001700084E090E00E948900109286041092850429
:100180001092800410927F0408958091AD049091A4
:10019000AE0401969093AE048093AD04CC976CF0BE
:1001A0001092AE041092AD04809193049091940447
:1001B000019690939404809393048091930490917A
:1001C0009404CC976CF01092940410929304809154
:1001D00097049091980401969093980480939704C3
:1001E0008091970490919804489724F01092980475
:1001F000109297040895FF920F931F93CF93DF936C
:100200000E94700280919704909198042AE030E057
:10021000B9010E944D0EE82FCB01B9010E944D0E8D
:10022000482F0F2EF0E3FF2EF02DFE0E8091930449
:1002300090919404B9010E944D0E182FCB01B90181
:100240000E944D0E00E3080F105D8091AD04909167
:10025000AE04B9010E944D0EC82FCB01B9010E9416
:100260004D0ED0E3D80FC05D80E3840F0E946C0276
:100270008F2D0E946C028AE30E946C02802F0E94E4
:100280006C02812F0E946C028AE30E946C028D2F07
:100290000E946C028C2F0E946C02DF91CF911F9103
:1002A0000F91FF9008958091850490918604892B89
:1002B00049F080917F04909180040196909380048E
:1002C00080937F0480918D0490918E04892B49F056
:1002D000809187049091880401969093880480937C
:1002E000870480918704909188048837910541F4B0
:1002F000109288041092870410928E0410928D043C
:1003000008951F93CF93DF93C82FD0E010E009C06A
:100310000E945D0C1C1302C0DF5F02C01C2FD0E0E6
:100320009C2FD730A8F3892FDF91CF911F9108958B
:10033000BF92CF92DF92EF92FF920F931F93CF93D2
:10034000DF93CDB7DEB72C970FB6F894DEBF0FBEA4
:10035000CDBF8CE0E0E0F1E0DE01119601900D925E
:100360008A95E1F780E78BB9C12CD12C42C08FE090
:1003700088B928B181E090E00E2C02C0880F991F47
:100380000A94E2F78095822388B900E010E023C048
:1003900029B1A8014C5F5F4F81E090E002C0880F57
:1003A000991F4A95E2F782230E948101811111C0B1
:1003B000F701EE0FFF1FEE0DFF1D81E090E08C0FA7
:1003C0009D1FE80FF91FE00FF11FB080CC24C394EC
:1003D000D12C0F5F1F4F03301105D4F29FEFE91AA4
:1003E000F90A02C0E12CF12C84E0E816F1040CF4C7
:1003F000BECFC114D104B1F38B2D2C960FB6F89457
:10040000DEBF0FBECDBFDF91CF911F910F91FF9047
:10041000EF90DF90CF90BF900895CF93C82F6111D8
:1004200004C085B18E7F85B903C085B1816085B96F
:1004300085B18F7085B985B19C2F907F892B85B947
:1004400085B1826085B985B18D7F85B90E94670CC1
:1004500085B18F7085B985B1C295C07FC82BC5B9EC
:1004600085B1826085B985B18D7F85B90E94670CA1
:10047000CF91089585B18E7F85B985B18F7085B98B
:1004800085B1806285B985B1826085B985B18D7F7E
:1004900085B90E94670C60E088E20E940D0260E06E
:1004A00086E00E940D0260E08CE00E940D0208953B
:1004B0000F931F93CF938C01C0E004C061E00E94B2
:1004C0000D02CF5FF801EC0FF11D80818111F6CF95
:1004D000CF911F910F91089561E00E940D02089540
:1004E00060E081E00E940D020E94700C08950F935D
:1004F0001F93CF93DF938C01EB010E947002C80120
:100500000E94580260E080EC0E940D02CE010E9421
:100510005802DF91CF911F910F9108950E946200C0
:100520000E943A020E9496008CE090E090938A0428
:1005300080938904E0918904F0918A04EF30F105F9
:10054000C8F7EC5CFF4F0C94610E0E9470028CE0C7
:1005500091E00E9458020E949801833259F781E08D
:100560000E940D0390938A0480938904E3CF0E9434
:100570008C0390938A0480938904DCCF60E171E05E
:1005800080E291E00E9477020E94F20390938A0435
:1005900080938904CFCF0E943007CCCF0E944704BC
:1005A0008AE090E090938A0480938904C3CF0E94EC
:1005B000470489E090E090938A0480938904BACF3D
:1005C0000E9447040E94D605B5CF0E942406B2CFF0
:1005D0000E94A806AFCF0E949A050E94D605AACF16
:1005E0000E945E050E94D605A5CF0E94AF07A2CF4C
:1005F0000E94500890938A04809389049BCF6EE2F6
:1006000071E081E391E00E947702FFCF68E371E03F
:1006100081E391E00E947702FFCF811103C00E9425
:10062000180C0895813019F40E94F00B089580E0B1
:1006300090E00895EF92FF920F931F93CF938C0158
:100640000697B9F48091890490918A0486309105C7
:1006500029F08A30910511F0099759F40E9470022F
:100660006BE371E084E491E00E947702E12CF12CCD
:1006700049C00E9470026EE471E086E591E00E943C
:100680007702F4CF0E949801C82F8A32D9F18332C1
:10069000C9F10430110551F4F701E458FB4F808390
:1006A0008AE20E946C028FEFE81AF80A0630110500
:1006B000B1F48091890490918A048630910529F0E3
:1006C0008A30910511F0099751F4F701E955FB4F74
:1006D000C0838C2F0E946C028FEFE81AF80A063054
:1006E000110581F48091890490918A04089751F44E
:1006F000F701E756FB4FC0838AE20E946C028FEF3E
:10070000E81AF80AE016F1060CF4BCCFCF911F915D
:100710000F91FF90EF90089584E090E00E941A03FB
:100720005CC065E671E08CE794E00E947B0E892B4B
:10073000C1F48091A5049091A604019749F481E049
:1007400090E090938C0480938B0482E090E0089575
:100750006AE671E087E791E00E9477020E943D0C13
:100760003CC067E871E08CE794E00E947B0E892B27
:10077000C9F48091B7049091B8048130910591F447
:10078000019739F482E090E090938C0480938B047D
:1007900008956AE671E08CE891E00E9477020E9479
:1007A0003D0C1BC06CE971E08CE794E00E947B0E6D
:1007B000892B39F483E090E090938C0480938B0430
:1007C00008950E94700281EA91E00E9458020E94FE
:1007D0003D0C84E090E00E941A030E94980183324D
:1007E000E1F79FCFEF92FF920F931F93CF93E12CEE
:1007F000F12C00E010E040C00E949801C82F8A321E
:1008000049F480E00E940D03892B21F0E12CF12CAA
:1008100001E010E0C13371F461EB71E089EB91E02C
:100820000E9477020E943D0C6894EE24E2F8F12CBD
:1008300001E010E0C23379F465EC71E089EB91E0FE
:100840000E9477020E943D0C0F2EF5E0EF2EF12C56
:10085000F02D01E010E0C33379F468E171E089EB39
:1008600091E00E9477020E943D0C01E010E00F2E03
:10087000F6E0EF2EF12CF02D0115110509F4BCCF97
:10088000C701CF911F910F91FF90EF9008950F93A3
:100890001F93CF93DF93CDB7DEB72C970FB6F894A5
:1008A000DEBF0FBECDBF19821A821B821C82FE01E1
:1008B000359688E0DF011D928A95E9F70E94700263
:1008C0006DEC71E08BED91E00E9477020E9498013F
:1008D000898300E010E086C0833209F483C00130D0
:1008E000110521F124F40115110549F07BC00230F6
:1008F0001105B1F10330110509F452C073C00E9413
:1009000070026DEC71E08BED91E00E9477028981BD
:100910000E946C020F5F1F4F0E949801E1E0F0E01F
:10092000EC0FFD1FE00FF11F80835CC00E9470027E
:100930006AEE71E08BED91E00E94770289810E945E
:100940006C028A810E946C020F5F1F4F0E94980107
:10095000E1E0F0E0EC0FFD1FE00FF11F808342C0EB
:100960000E94700267EF71E08BED91E00E947702C8
:1009700089810E946C028CE20E946C028A810E9432
:100980006C028B810E946C020F5F1F4F0E949801C6
:10099000E1E0F0E0EC0FFD1FE00FF11F808322C0CB
:1009A0000E94700262E072E08BED91E00E9477029B
:1009B00089810E946C028A810E946C028CE20E94F2
:1009C0006C028B810E946C028C810E946C020F5F12
:1009D0001F4F0E949801E1E0F0E0EC0FFD1FE00FD7
:1009E000F11F8083E1E0F0E0EC0FFD1FE00FF11F4D
:1009F0008081833209F070CF20E030E016C0E1E062
:100A0000F0E0EC0FFD1FE20FF31F808190E0C09734
:100A1000F901EE0FFF1F41E050E04C0F5D1FE40FA6
:100A2000F51F958384832F5F3F4F243031053CF3BE
:100A30008D859E8524E6289FB001299F700D112485
:100A40008B859C85AC01440F551F9C01220F331FE1
:100A5000220F331F220F331FCA01820F931F860FED
:100A6000971F29853A85280F391F8F8198856AE05D
:100A700070E00E944D0E260F371F8D819E8164E627
:100A800070E00E944D0E620F731F072E000C880B42
:100A9000990B0E94540D60938F047093900480937F
:100AA0009104909392042C960FB6F894DEBF0FBE7B
:100AB000CDBFDF91CF911F910F9108950F931F9399
:100AC000CF930E9470026CE072E088E192E00E9495
:100AD000770200E010E027C00E949801C82F813300
:100AE00081F481E090E090939604809395046CE10A
:100AF00072E083E292E00E9477020E943D0C01E0E6
:100B000010E0C23381F482E090E0909396048093E9
:100B1000950460E172E083E292E00E9477020E9415
:100B20003D0C01E010E001151105B1F2CF911F91CC
:100B30000F9108950F931F93CF930E94700260E36B
:100B400072E088E392E00E94770200E010E027C0A4
:100B50000E949801C82F823381F461E472E083E23D
:100B600092E00E9477020E943D0C82E090E0909318
:100B70007B0480937A0401E010E0C33381F469E4DC
:100B800072E083E292E00E9477020E943D0C83E0D3
:100B900090E090937B0480937A0401E010E00115CB
:100BA0001105B1F2CF911F910F910895CF93DF936B
:100BB00086E090E00E941A03C0E0D0E03FC00E94AF
:100BC00098018332D9F561E572E087EA94E00E94EA
:100BD0007B0E892B41F068E572E087EA94E00E9481
:100BE0007B0E892BE1F48091890490918A04099706
:100BF000029730F488E090E090938A04809389040F
:100C00008091890490918A040697B1F487E090E07E
:100C100090938A0480938904C1E0D0E00FC00E94C1
:100C200070028FE592E00E9458020E943D0C86E01F
:100C300090E00E941A0302C0C1E0D0E0209709F4BE
:100C4000BECFDF91CF9108950F931F93CF93DF9382
:100C50000E9470026FE672E08AE792E00E947702DB
:100C60000E943D0C84E090E00E941A03C0E0D0E0B6
:100C700059C00E949801833209F054C000918B043E
:100C800010918C0401301105F9F465E671E08CE7F0
:100C900094E00E947B0E892BB9F4CFE9D4E0209137
:100CA0008F04309190044091910450919204688196
:100CB00079818A819B810E94AF0C688379838A83C2
:100CC0009B83C1E0D0E02EC002301105F9F467E843
:100CD00071E08CE794E00E947B0E892BB9F4C1EBA4
:100CE000D4E020918F043091900440919104509170
:100CF0009204688179818A819B810E94AF0C68830C
:100D000079838A839B83C1E0D0E00CC00E9470028B
:100D10008DE892E00E9458020E943D0C84E090E031
:100D20000E941A03209709F4A4CF0E9470026CE974
:100D300072E089EA92E00E9477020E943D0C1092D4
:100D40008A0410928904DF91CF911F910F91089529
:100D5000CF93DF9386E090E00E941A03C0E0D0E0DA
:100D600036C00E949801833291F561E572E089E90D
:100D700094E00E947B0E892B41F461E572E087EAE2
:100D800094E00E947B0E892BE9F068E572E089E926
:100D900094E00E947B0E892B41F468E572E087EABB
:100DA00094E00E947B0E892B81F00E9470028DE8F6
:100DB00092E00E9458020E943D0C86E090E00E9462
:100DC0001A0305C0C1E0D0E002C0C1E0D0E0209726
:100DD00041F265E671E08CE794E00E947B0E892B7E
:100DE000A1F4CFE9D4E020918F0430919004409198
:100DF000910450919204688179818A819B810E943B
:100E0000B00C688379838A839B8367E871E08CE701
:100E100094E00E947B0E892BA1F4C1EBD4E02091D9
:100E20008F04309190044091910450919204688114
:100E300079818A819B810E94B00C688379838A833F
:100E40009B836BEB72E085EC92E00E9477020E943C
:100E50003D0C10928A0410928904DF91CF9108957D
:100E60000F931F93CF930E9470026FEC72E08FED8F
:100E700092E00E9477020E943D0C0E94700264EE94
:100E800072E084EF92E00E9477020E943D0C00E045
:100E900010E05DC00E949801C82F813381F465E0A5
:100EA00073E080E193E00E9477020E943D0C8BE0AA
:100EB00090E090938A048093890401E010E0C233AB
:100EC00081F460E273E083E292E00E9477020E9484
:100ED0003D0C8CE090E090938A048093890401E0BB
:100EE00010E0C33381F460E373E083E292E00E9498
:100EF00077020E943D0C8DE090E090938A048093ED
:100F0000890401E010E0C43381F46BE373E083E211
:100F100092E00E9477020E943D0C8EE090E0909358
:100F20008A048093890401E010E0C53381F46AE407
:100F300073E083E292E00E9477020E943D0C8FE012
:100F400090E090938A048093890401E010E00115F9
:100F5000110509F49FCFCF911F910F910895EF9242
:100F6000FF920F931F93CF930E94700265E573E089
:100F700088E693E00E9477020E943D0CE12CF12C60
:100F800000E010E022C00E949801C82F813369F46C
:100F900063E773E083E292E00E9477020E943D0CD7
:100FA000EE24E394F12C01E010E0C23371F46EE71B
:100FB00073E083E292E00E9477020E943D0C01E020
:100FC00010E06894EE24E1F8F12C01151105D9F236
:100FD0000E94700269E873E089E993E00E94770259
:100FE0000E943D0C53C00E949801C82F813341F5E7
:100FF00081E0E816F10481F467EA73E083E793E0A7
:101000000E9477020E943D0C81E090E09093A6043C
:101010008093A50400E010E082E0E816F10481F47A
:1010200067EA73E08EE793E00E9477020E943D0C2E
:1010300081E090E09093B8048093B70400E010E062
:10104000C23321F581E0E816F10471F462EB73E03C
:1010500083E793E00E9477020E943D0C1092A60461
:101060001092A50400E010E082E0E816F10471F4AB
:1010700062EB73E08EE793E00E9477020E943D0CE2
:101080001092B8041092B70400E010E001151105A9
:1010900009F0A9CFCF911F910F91FF90EF90089584
:1010A000CF92DF92EF92FF920F931F93CF93DF9334
:1010B00000D000D000D0CDB7DEB700E0E12CF12C9D
:1010C000A1C001110AC00E94700286E194E00E9452
:1010D000580260E080EC0E940D020E949801182FD7
:1010E000833209F477C08A3209F474C0063008F0FC
:1010F00071C0E1E0F0E0EC0FFD1FE00FF11D808317
:101100000E946C020F5F023011F0043019F48AE380
:101110000E946C02063009F05DC0898190E0C097A2
:101120009C01220F331F880F991F880F991F880F6A
:10113000991F820F931F2A8130E020533109820FBB
:10114000931F8831910584F52B8130E020533109BC
:10115000A901440F551F220F331F220F331F220FE7
:10116000331F240F351F4C8150E040535109240F89
:10117000351F2C333105C4F44D8150E040535109E3
:10118000BA01660F771F440F551F440F551F440FB8
:10119000551F460F571F6E8170E060537109460F4F
:1011A000571F4C33510554F063E972E085E294E037
:1011B0000E9477020E943D0C00E00CC090939804BE
:1011C0008093970430939404209393045093AE0437
:1011D0004093AD04133251F4063041F40F2EFDE07C
:1011E000CF2ED12CF02DEE24E394F12C1A3251F4B1
:1011F00080E00E940D03019729F4C12CD12CEE242C
:10120000E394F12CE114F10409F45BCFC6012696B6
:101210000FB6F894DEBF0FBECDBFDF91CF911F9107
:101220000F91FF90EF90DF90CF9008958091C000D4
:101230008823E4F78091C6000895CF92DF92EF9261
:10124000FF920F931F93CF93DF93CDB7DEB76497D1
:101250000FB6F894DEBF0FBECDBF8230910509F402
:1012600076C01CF4019749F041C18330910509F41F
:10127000DDC0049709F43FC139C186E589838A83BB
:1012800080E090E019C0FC013296DC01A955BB4F0B
:101290002C9141E050E04C0F5D1FE40FF51F205DE5
:1012A0002083FC013896DC01A756BB4F2C91E40F3C
:1012B000F51F205D208301968630910524F3C090B0
:1012C0008F04D0909004E0909104F090920420E07C
:1012D00030E048EC52E4C701B6010E94E00D0E94E4
:1012E0001C0D9B01CB0168EE73E00E944D0ECB01FB
:1012F0000AE010E0B8010E944D0E805D8F87C901A1
:1013000064E670E00E944D0ECB01B8010E944D0EC4
:10131000805D888BC901B8010E944D0ECB01B801D8
:101320000E944D0E805D898BC701B6010E941C0D85
:1013300024E6269FA001279F500D1124CA01B80161
:101340000E944D0E805D8A8B8DE08B8BCFC086E531
:10135000898380E58A8380E090E019C0FC013296A1
:10136000DC01A955BB4F2C9141E050E04C0F5D1FB3
:10137000E40FF51F205D2083FC013896DC01A756A1
:10138000BB4F2C91E40FF51F205D20830196863022
:10139000910524F380917A04805D8F87C0908F043B
:1013A000D0909004E0909104F090920420E030E01E
:1013B00048EC52E4C701B6010E94E00D0E941C0DEA
:1013C0009B01CB0168EE73E00E944D0ECB010AE059
:1013D00010E0B8010E944D0E805D888BC90164E663
:1013E00070E00E944D0ECB01B8010E944D0E805D51
:1013F000898BC901B8010E944D0ECB01B8010E9432
:101400004D0E805D8A8BC701B6010E941C0D24E63B
:10141000269FA001279F500D1124CA01B8010E94E8
:101420004D0E805D8B8B8DE08C8B60C085E4898355
:1014300086E58A8380E090E00FC0FC013296DC01F3
:10144000A955BB4F2C9141E050E04C0F5D1FE40FBC
:10145000F51F205D208301968630910574F3C090BE
:101460008F04D0909004E0909104F090920420E0DA
:1014700030E048EC52E4C701B6010E94E00D0E9442
:101480001C0D9B01CB0168EE73E00E944D0ECB0159
:101490000AE010E0B8010E944D0E805D8987C90105
:1014A00064E670E00E944D0ECB01B8010E944D0E23
:1014B000805D8A87C901B8010E944D0ECB01B80139
:1014C0000E944D0E805D8B87C701B6010E941C0DE6
:1014D00024E6269FA001279F500D1124CA01B801C0
:1014E0000E944D0E805D8C878DE08D8740E050E03E
:1014F00020E030E075C081E4898380E58A8380E064
:1015000090E00FC0FC013296DC01A955BB4F2C9135
:1015100041E050E04C0F5D1FE40FF51F205D20837C
:1015200001968630910574F3C0908F04D09090049A
:10153000E0909104F090920420E030E048EC52E416
:10154000C701B6010E94E00D0E941C0D9B01CB015A
:1015500068EE73E00E944D0ECB010AE010E0B80186
:101560000E944D0E805D8987C90164E670E00E948B
:101570004D0ECB01B8010E944D0E805D8A87C901D6
:10158000B8010E944D0ECB01B8010E944D0E805D46
:101590008B87C701B6010E941C0D24E6269FA0017F
:1015A000279F500D1124CA01B8010E944D0E805D85
:1015B0008C878DE08D879ACF8091C00085FFFCCF0E
:1015C000E1E0F0E0EC0FFD1FE20FF31F808180935C
:1015D000C60080818D3011F441E050E02F5F3F4F15
:1015E0004115510549F364960FB6F894DEBF0FBE5E
:1015F000CDBFDF91CF911F910F91FF90EF90DF90C2
:10160000CF9008958091C8048F3481F48091C904EB
:101610008B3461F46AE274E084E394E00E94770220
:101620000E94700288EC94E00E9458028091C804E5
:10163000833469F48091C904863461F46EE374E004
:1016400084E494E00E94770242E050E005C041E06B
:1016500050E002C041E050E08091C804833561F45D
:101660008091C904863441F463E972E08EE494E029
:101670000E94770243E050E08091C804833561F412
:101680008091C904893441F464E574E081E694E012
:101690000E94770244E050E08091C804803561F4F4
:1016A0008091C9048E3441F467E674E082E794E0E7
:1016B0000E94770245E050E08091C8048334E9F449
:1016C0008091C9048D34C9F40BC0FC01E653FB4F73
:1016D0002081FC01E955FB4F20532083019602C075
:1016E00080E090E08630910584F30E94700288ECDF
:1016F00094E00E94580246E050E08091C804833490
:10170000F9F48091C9048735D9F415C0F901E6537D
:10171000FB4F9081F901E955FB4F90539083F901FC
:10172000E053FB4F9081F901E756FB4F90539083B4
:101730002F5F3F4F02C020E030E02630310534F308
:10174000CA0108951F920F920FB60F9211240F93A2
:101750001F932F933F934F935F936F937F938F9339
:101760009F93AF93BF93CF93DF93EF93FF9300E0EB
:1017700010E0C0E0D0E00CC00E941609FE01E75462
:10178000FB4F80838D3011F0219602C001E010E004
:101790000115110589F369EB74E088EC94E00E946F
:1017A000840E10928804109287040E94020B84E039
:1017B00090E00E941D09FF91EF91DF91CF91BF91C1
:1017C000AF919F918F917F916F915F914F913F91D9
:1017D0002F911F910F910F900FBE0F901F90189592
:1017E00087E088B981E090E0909386048093850437
:1017F00020E030E008C080917F049091800402973F
:1018000011F421E030E04E9903C02115310599F320
:1018100010928604109285041092800410927F0426
:10182000232B19F480E090E0089581E090E0089582
:1018300087E088B981E090E09093860480938504E6
:1018400020E007C080917F0490918004029709F402
:1018500021E04C9902C02223A9F310928604109231
:1018600085041092800410927F04211103C080E04F
:1018700090E0089581E090E0089581E090E09093F9
:1018800086048093850480E20E946C0220E030E0B0
:1018900008C080917F0490918004039711F421E0A7
:1018A00030E021153105A9F31092860410928504C9
:1018B0001092800410927F04089584E085BD82EC2C
:1018C00086BDA89BFECF85B3816085BB089582E06D
:1018D00085BD80EB86BDA89BFECF81E085BB0895CA
:1018E00084E085BD89E986BDA89BFECF81E085BBEC
:1018F00008951F920F920FB60F9211242F933F93CA
:101900004F935F936F937F938F939F93AF93BF9307
:10191000EF93FF938CED9BE0909385008093840080
:1019200081E086BB0E94C5008091890490918A0461
:101930000D9711F40E94FB000E945301FF91EF915B
:10194000BF91AF919F918F917F916F915F914F91D7
:101950003F912F910F900FBE0F901F9018955058E8
:10196000BB27AA270E94C70C0C94A60D0E94980DB5
:1019700038F00E949F0D20F039F49F3F19F426F4AF
:101980000C94950D0EF4E095E7FB0C948F0DE92F68
:101990000E94B70D58F3BA176207730784079507BB
:1019A00020F079F4A6F50C94D90D0EF4E0950B2EE9
:1019B000BA2FA02D0B01B90190010C01CA01A001A1
:1019C0001124FF27591B99F0593F50F4503E68F1FC
:1019D0001A16F040A22F232F342F4427585FF3CF3D
:1019E000469537952795A795F0405395C9F77EF40E
:1019F0001F16BA0B620B730B840BBAF09150A1F057
:101A0000FF0FBB1F661F771F881FC2F70EC0BA0FDC
:101A1000621F731F841F48F4879577956795B79564
:101A2000F7959E3F08F0B0CF9395880F08F099275F
:101A3000EE0F9795879508950E94230D6894B11134
:101A40000C94DA0D08950E94BF0D88F09F5798F00E
:101A5000B92F9927B751B0F0E1F0660F771F881FB3
:101A6000991F1AF0BA95C9F714C0B13091F00E94CD
:101A7000D90DB1E008950C94D90D672F782F8827E0
:101A8000B85F39F0B93FCCF3869577956795B395F4
:101A9000D9F73EF490958095709561957F4F8F4F63
:101AA0009F4F0895E89409C097FB3EF49095809568
:101AB000709561957F4F8F4F9F4F9923A9F0F92F14
:101AC00096E9BB279395F695879577956795B79592
:101AD000F111F8CFFAF4BB0F11F460FF1BC06F5F78
:101AE0007F4F8F4F9F4F16C0882311F096E911C08A
:101AF000772321F09EE8872F762F05C0662371F0AB
:101B000096E8862F70E060E02AF09A95660F771FBE
:101B1000881FDAF7880F9695879597F9089597F9B2
:101B20009F6780E870E060E008959FEF80EC089583
:101B300000240A94161617061806090608950024AC
:101B40000A9412161306140605060895092E039426
:101B5000000C11F4882352F0BB0F40F4BF2B11F49A
:101B600060FF04C06F5F7F4F8F4F9F4F089557FDF9
:101B70009058440F551F59F05F3F71F04795880FFB
:101B800097FB991F61F09F3F79F087950895121692
:101B900013061406551FF2CF4695F1DF08C016163E
:101BA00017061806991FF1CF8695710561050894EF
:101BB0000895E894BB2766277727CB0197F9089506
:101BC0000E94F30D0C94A60D0E94980D38F00E940F
:101BD0009F0D20F0952311F00C948F0D0C94950D12
:101BE00011240C94DA0D0E94B70D70F3959FC1F388
:101BF000950F50E0551F629FF001729FBB27F00DBB
:101C0000B11D639FAA27F00DB11DAA1F649F66270F
:101C1000B00DA11D661F829F2227B00DA11D621F5E
:101C2000739FB00DA11D621F839FA00D611D221F18
:101C3000749F3327A00D611D231F849F600D211DFC
:101C4000822F762F6A2F11249F5750409AF0F1F07F
:101C500088234AF0EE0FFF1FBB1F661F771F881FE8
:101C600091505040A9F79E3F510580F00C948F0D84
:101C70000C94DA0D5F3FE4F3983ED4F386957795A4
:101C80006795B795F795E7959F5FC1F7FE2B880F8E
:101C9000911D9695879597F9089597FB072E16F451
:101CA000009407D077FD09D00E94670E07FC05D08D
:101CB0003EF4909581959F4F0895709561957F4F63
:101CC0000895EE0FFF1F0590F491E02D0994AA1BD3
:101CD000BB1B51E107C0AA1FBB1FA617B70710F017
:101CE000A61BB70B881F991F5A95A9F78095909549
:101CF000BC01CD010895FB01DC018D91019080199B
:101D00000110D9F3990B0895FB01DC0101900D92AC
:0A1D10000020E1F70895F894FFCFDA
:101D1A003132333435363738392A30234F46460084
:101D2A005072617A6F20332D4573746F726E6F0033
:101D3A00312D4120566973746120322D41003133AF
:101D4A000065737461646F003134004361727461B9
:101D5A006F3A20004E756D65726F20646F0053658F
:101D6A006E68613A2000446967697465206120736E
:101D7A00656E68610031323334006465736162698B
:101D8A006C697461646F004F70657261646F722070
:101D9A003120657374610032333435004F706572D7
:101DAA0061646F722032206573746100303132339E
:101DBA000053454E484120494E56414C4944412121
:101DCA0000412076697374610053656C63696F6EB4
:101DDA0061646F3A0041207072617A6F0052242068
:101DEA0020202020202020202C20004469676974AC
:101DFA0065206F2076616C6F7200522420202020AB
:101E0A0020202020202C00522420202020202020A6
:101E1A0020005224202020202020200032202D20A3
:101E2A004372656469746F0031202D2044656269CC
:101E3A00746F0053656C6563696F6E61646F3A0015
:101E4A0032206F7520333A0050617263656C61739A
:101E5A0000322076657A657300332076657A657379
:101E6A0000323833303737003331333739390043AA
:101E7A00415254414F20494E56414C49444F0073F8
:101E8A0075612073656E68612E004F7065726164BA
:101E9A006F722C20636F6E6669726D650053454ED2
:101EAA00484120494E56414C49444100436F6D20F8
:101EBA007375636573736F21004573746F726E6F08
:101ECA00207265616C697A61646F004170726F7625
:101EDA0061646F2100506167616D656E746F0041C6
:101EEA00646D696D696E6973747261646F72004DB5
:101EFA006F646F00342D442E50656E6420352D5268
:101F0A00656C2E00312D4F5020322D486520332D1F
:101F1A0050656E64004F70657261646F726573001C
:101F2A004861622F4465736162696C697461720009
:101F3A00416C746572617220486F726172696F00D8
:101F4A0050656E64656E63696173004C696D70619A
:101F5A00722050656E64656E2E0052656C61746FF6
:101F6A0072696F730031202D204F5045312C203279
:101F7A00202D204F5045320053656C6563696F6EA2
:101F8A00653A004F70657261646F722031004F705C
:101F9A00657261646F7220320032202D20446573AD
:101FAA006162696C697461720031202D2048616236
:101FBA00696C6974617200486162696C6974616410
:101FCA006F004465736162696C697461646F004F84
:101FDA007065722E20332D4573746F726E6F7300A5
:101FEA00312D44696120617475616C20322D506F06
:101FFA00720052656C61746F72696F20646F20643D
:10200A0069610052656C61746F72696F20706F72DA
:10201A00204F50450052656C61746F72696F207071
:10202A006F204F50450044696769746520612068D4
:10203A006F72613A00484F5241004546455449562D
:10204A0041444F00504147414D454E544F0046418F
:10205A004C484100434F4E544120434F4D00534595
:10206A004E484100494E535546494349454E544509
:10207A000053414C444F004C4F43414C495A414450
:0A208A004F005047204E414F000068
:00000001FF
