S010000050726F6A65746F312E7372656300
S11300000C943F000C945C000C945C000C945C0019
S11300100C945C000C945C000C945C000C945C00EC
S11300200C945C000C945C000C945C000C945C00DC
S11300300C945C000C943A060C945C000C945C00E8
S11300400C945C000C945C000C948D050C945C0086
S11300500C945C000C945C000C945C000C945C00AC
S11300600C945C000C945C00F30105020C02190270
S11300702C0235023E025302560259025C0211243C
S11300801FBECFEFD8E0DEBFCDBF12E0A0E0B1E0ED
S1130090EEE7FFE002C005900D92A239B107D9F74F
S11300A022E0A2E9B2E001C01D92AF3DB207E1F740
S11300B00E94DE010C94BD070C94000014BC109245
S11300C080001092B00084E0809381008CED9BE06E
S11300D090938500809384007894EFE6F0E080812B
S11300E0816080838FEF84B98FE087B91AB808954F
S11300F09093A2028093A10270939E0260939D024A
S11301000895E1EBF2E010821182128213821582CB
S1130110148281E090E097838683E9EBF2E0108219
S1130120118212821382158214829783868360E07F
S113013070E088E090E00E9478001092A40210928F
S1130140A30210929602109295021092A6021092A7
S1130150A5021092980210929702089580919D0230
S113016090919E02019690939E0280939D02CC975B
S11301706CF010929E0210929D028091A1029091C7
S1130180A20201969093A2028093A1028091A102FF
S11301909091A202489724F01092A2021092A10218
S11301A008951F93CF93DF93C82FD0E010E009C0C8
S11301B00E941E061C1302C0DF5F02C01C2FD0E089
S11301C09C2FD730A8F3892FDF91CF911F910895E9
S11301D0BF92CF92DF92EF92FF920F931F93CF9330
S11301E0DF93CDB7DEB72C970FB6F894DEBF0FBE02
S11301F0CDBF8CE0E0E0F1E0DE01119601900D92BC
S11302008A95E1F780E78BB9C12CD12C42C08FE0ED
S113021088B928B181E090E00E2C02C0880F991FA4
S11302200A94E2F78095822388B900E010E023C0A5
S113023029B1A8014C5F5F4F81E090E002C0880FB4
S1130240991F4A95E2F782230E94D100811111C0BF
S1130250F701EE0FFF1FEE0DFF1D81E090E08C0F04
S11302609D1FE80FF91FE00FF11FB080CC24C39449
S1130270D12C0F5F1F4F03301105D4F29FEFE91A01
S1130280F90A02C0E12CF12C84E0E816F1040CF424
S1130290BECFC114D104B1F38B2D2C960FB6F894B4
S11302A0DEBF0FBECDBFDF91CF911F910F91FF90A5
S11302B0EF90DF90CF90BF900895CF93C82F611136
S11302C004C085B18E7F85B903C085B1816085B9CD
S11302D085B18F7085B985B19C2F907F892B85B9A5
S11302E085B1826085B985B18D7F85B90E94280664
S11302F085B18F7085B985B1C295C07FC82BC5B94A
S113030085B1826085B985B18D7F85B90E94280643
S1130310CF91089585B18E7F85B985B18F7085B9E8
S113032085B1806285B985B1826085B985B18D7FDB
S113033085B90E94280660E088E20E945D0160E0C1
S113034086E00E945D0160E08CE00E945D010895FA
S11303500F931F93CF938C01C0E004C061E00E940F
S11303605D01CF5FF801EC0FF11D80818111F6CFA3
S1130370CF911F910F91089561E00E945D0108954E
S113038060E081E00E945D010E94310608950F93B0
S11303901F93CF93DF938C01EB010E94C001C8012E
S11303A00E94A80160E080EC0E945D01CE010E94E1
S11303B0A801DF91CF911F910F9108950E945E00D3
S11303C00E948A010E94810010929A02109299025E
S11303D0E0919902F0919A02EB30F105C8F7EC5CD8
S11303E0FF4F0C9493070E94C0018CE091E00E949F
S11303F0A8010E94E800833259F781E00E945F025D
S113040090939A0280939902E3CF0E94AB02909357
S11304109A0280939902DCCF60E171E080E291E07E
S11304200E94C7010E94EE0290939A02809399025F
S1130430CFCF0E94C0016EE271E08EE391E00E9492
S1130440C70181E086BB0E94100663E471E084E585
S113045091E00E94C701FFCF0E943D038AE090E033
S113046090939A0280939902B3CF0E943D0389E04E
S113047090E090939A0280939902AACF0E943D0340
S11304800E94C00163E671E081E791E00E94C70128
S113049081E086BB0E9410060E94AB0290939A02F0
S11304A08093990295CF0E94D50492CF0E940A05A9
S11304B08FCF0E949B048CCF0E94550489CF811159
S11304C003C00E94EB050895813019F40E94C6050B
S11304D0089580E090E00895EF92FF920F931F93A8
S11304E0CF938C018091990290919A02892B31F0DB
S11304F06BE771E082E891E00E94C701E12CF12CE6
S113050021C00E94E800C82F8A32E1F08332D1F082
S11305100430110551F4F701EE56FD4F80838AE251
S11305200E94BC018FEFE81AF80A0630110551F455
S1130530F701E955FD4FC0838AE20E94BC018FEFA9
S1130540E81AF80AE016F106E4F2CF911F910F9130
S1130550FF90EF90089584E090E00E946C0236C012
S113056061E971E082E992E00E94AD07892B49F4C8
S113057081E090E090939C0280939B0282E090E063
S1130580089566E971E082E992E00E94AD07892B43
S113059039F482E090E090939C0280939B0208954A
S11305A06BE971E082E992E00E94AD07892B99F032
S11305B00E94C00180EA91E00E94A80181E086BB0C
S11305C00E94100684E090E00E946C020E94E80001
S11305D08332E1F7C5CF83E090E00895EF92FF9274
S11305E00F931F93CF93E12CF12C00E010E03BC05C
S11305F00E94E800C82F813381F46FEA71E087EB31
S113060091E00E94C70181E086BB0E9410066894B5
S1130610EE24E2F8F12C01E010E0C23389F463EC3B
S113062071E087EB91E00E94C70181E086BB0E94E4
S113063010060F2EF5E0EF2EF12CF02D01E010E066
S1130640C33389F468E171E087EB91E00E94C7014C
S113065081E086BB0E94100601E010E00F2EF6E058
S1130660EF2EF12CF02D0115110511F2C701CF91D8
S11306701F910F91FF90EF9008950F931F93CF93C5
S1130680DF93CDB7DEB72F970FB6F894DEBF0FBE5A
S1130690CDBFFE01319685E0DF011D928A95E9F711
S11306A035968AE0DF011D928A95E9F70E94C00120
S11306B06BEC71E089ED91E00E94C70100E010E06D
S11306C08DC00E94E800E1E0F0E0EC0FFD1FE00FB8
S11306D0F11F80830E94E800833209F47FC0023056
S11306E0110579F13CF40115110561F00130110592
S11306F0B9F074C003301105D9F10430110509F4BF
S113070051C06CC00E94C0016BEC71E089ED91E0B6
S11307100E94C70189810E94BC010F5F1F4F5EC008
S11307200E94C00168EE71E089ED91E00E94C7016A
S113073089810E94BC018A810E94BC010F5F1F4F06
S11307404DC00E94C00165EF71E089ED91E00E9407
S1130750C70189810E94BC018CE20E94BC018A818C
S11307600E94BC018B810E94BC010F5F1F4F36C0E9
S11307700E94C00160E072E089ED91E00E94C7012F
S113078089810E94BC018A810E94BC018CE20E9482
S1130790BC018B810E94BC018C810E94BC010F5F53
S11307A01F4F1CC00E94C0016AE072E089ED91E015
S11307B00E94C70189810E94BC018A810E94BC01F8
S11307C08B810E94BC018CE20E94BC018C810E943E
S11307D0BC018D810E94BC010F5F1F4F0E94E80085
S11307E0833209F06ECF20E030E016C0E1E0F0E0A3
S11307F0EC0FFD1FE20FF31F808190E0C097F90119
S1130800EE0FFF1F41E050E04C0F5D1FE40FF51F9A
S1130810968385832F5F3F4F253031053CF38E85CA
S11308209F8524E6289FB001299F700D11248C8593
S11308309D85AC01440F551F9C01220F331F220FCD
S1130840331F220F331FCA01820F931F860F971F76
S11308502A853B85280F391F888599856AE070E0D1
S11308600E947F07260F371F8E819F8164E670E008
S11308700E947F07620F731F072E000C880B990BD1
S11308800E94F3066093AD027093AE028093AF02B0
S11308909093B0022F960FB6F894DEBF0FBECDBF73
S11308A0DF91CF911F910F9108950F931F93CF93D1
S11308B00E94C00163E172E08FE192E00E94C701EF
S11308C000E010E031C00E94E800C82F813391F4A9
S11308D081E090E09093A00280939F0263E272E033
S11308E08AE292E00E94C70181E086BB0E94100662
S11308F001E010E0C23391F482E090E09093A00212
S113090080939F0267E172E08AE292E00E94C7014D
S113091081E086BB0E94100601E010E087E090E0D1
S113092090939A02809399020115110561F2CF9177
S11309301F910F9108950F931F93CF930E94C001AD
S113094067E372E08FE392E00E94C70100E010E0E9
S113095025C00E94E800C82F823361F468E472E085
S11309608AE292E00E94C70181E086BB0E941006E1
S113097001E010E0C33361F460E572E08AE292E0E2
S11309800E94C70181E086BB0E94100601E010E0CE
S113099087E090E090939A028093990201151105E3
S11309A0C1F2CF911F910F910895CF93DF9368E522
S11309B072E081E692E00E94C701C0E0D0E00DC081
S11309C00E94E8008A3249F0833239F0FE01E95589
S11309D0FD4F80830E94BC012196C630D10584F36B
S11309E0C0E0D0E012C00E94E800833241F428E065
S11309F030E030939A0220939902C1E0D0E08A3229
S1130A0021F410929A0210929902209761F3DF91D7
S1130A10CF910895CF93DF9386E090E00E946C021B
S1130A20C0E0D0E028C00E94E800833221F56FE6E0
S1130A3072E087EA92E00E94AD07892BB9F066E77D
S1130A4072E087EA92E00E94AD07892B91F00E9440
S1130A50C00180EA91E00E94A80181E086BB0E9467
S1130A60100686E090E00E946C0205C0C1E0D0E070
S1130A7002C0C1E0D0E02097B1F261E971E082E9FF
S1130A8092E00E94AD07892BA1F4C1EBD2E0209142
S1130A90AD023091AE024091AF025091B002688134
S1130AA079818A819B810E948506688379838A8300
S1130AB09B8366E971E082E992E00E94AD07892B8D
S1130AC0A1F4C9EBD2E02091AD023091AE02409185
S1130AD0AF025091B002688179818A819B810E9422
S1130AE08506688379838A839B836DE772E087E850
S1130AF092E00E94C70181E086BB0E94100610921A
S1130B009A0210929902DF91CF9108958091C000CA
S1130B108823E1F38091C60008951F920F920FB6C7
S1130B200F9211242F933F934F935F936F937F936F
S1130B308F939F93AF93BF93CF93DF93EF93FF93E1
S1130B40C0E0D0E007C00E948605FE01ED53FD4FD2
S1130B5080832196C930D105B4F363EC72E086ED4D
S1130B6092E00E94B607FF91EF91DF91CF91BF9180
S1130B70AF919F918F917F916F915F914F913F9131
S1130B802F910F900FBE0F901F90189587E088B992
S1130B9081E090E0909396028093950220E007C054
S1130BA08091A5029091A602039709F421E04E9941
S1130BB002C02223A9F31092960210929502109279
S1130BC0A6021092A502211103C080E090E00895CE
S1130BD081E090E0089587E088B981E090E0909307
S1130BE0A4028093A30220E007C080919702909111
S1130BF09802049709F421E04C9902C02223A9F336
S1130C001092A4021092A3021092980210929702DA
S1130C10211103C080E090E0089581E090E0089500
S1130C2085E08093810085EE98E49093850080931D
S1130C308400B09BFECF81E086BB089584E085BD2F
S1130C4082EC86BDA89BFECF85B3816085BB0895E9
S1130C5082E085BD80EB86BDA89BFECF81E085BB8D
S1130C60089584E085BD89E986BDA89BFECF81E017
S1130C7085BB08951F920F920FB60F9211242F93E4
S1130C803F934F935F936F937F938F939F93AF9310
S1130C90BF93EF93FF938CED9BE09093850080933B
S1130CA0840081E086BB0E94AE0080919502909101
S1130CB09602892B49F08091A5029091A602019693
S1130CC09093A6028093A5028091A3029091A4021E
S1130CD0892B49F080919702909198020196909304
S1130CE0980280939702FF91EF91BF91AF919F91EA
S1130CF08F917F916F915F914F913F912F910F90C1
S1130D000FBE0F901F9018955058BB27AA270E941A
S1130D109C060C9445070E94370738F00E943E0752
S1130D2020F039F49F3F19F426F40C9434070EF4A0
S1130D30E095E7FB0C942E07E92F0E94560758F321
S1130D40BA17620773078407950720F079F4A6F5AC
S1130D500C9478070EF4E0950B2EBA2FA02D0B01FE
S1130D60B90190010C01CA01A0011124FF27591BEC
S1130D7099F0593F50F4503E68F11A16F040A22FF2
S1130D80232F342F4427585FF3CF46953795279563
S1130D90A795F0405395C9F77EF41F16BA0B620B62
S1130DA0730B840BBAF09150A1F0FF0FBB1F661FA9
S1130DB0771F881FC2F70EC0BA0F621F731F841FEC
S1130DC048F4879577956795B795F7959E3F08F012
S1130DD0B0CF9395880F08F09927EE0F97958795D4
S1130DE00895E89409C097FB3EF49095809570951A
S1130DF061957F4F8F4F9F4F9923A9F0F92F96E963
S1130E00BB279395F695879577956795B795F111D7
S1130E10F8CFFAF4BB0F11F460FF1BC06F5F7F4F74
S1130E208F4F9F4F16C0882311F096E911C0772386
S1130E3021F09EE8872F762F05C0662371F096E88F
S1130E40862F70E060E02AF09A95660F771F881F5E
S1130E50DAF7880F9695879597F9089597F99F671C
S1130E6080E870E060E008959FEF80EC089500242E
S1130E700A941616170618060906089500240A94FB
S1130E8012161306140605060895092E0394000C81
S1130E9011F4882352F0BB0F40F4BF2B11F460FF10
S1130EA004C06F5F7F4F8F4F9F4F089557FD905839
S1130EB0440F551F59F05F3F71F04795880F97FB1A
S1130EC0991F61F09F3F79F08795089512161306D4
S1130ED01406551FF2CF4695F1DF08C01616170603
S1130EE01806991FF1CF8695710561050894089538
S1130EF0E894BB2766277727CB0197F9089597FBDA
S1130F00072E16F4009407D077FD09D00E949907A4
S1130F1007FC05D03EF4909581959F4F08957095F8
S1130F2061957F4F0895EE0FFF1F0590F491E02D1A
S1130F300994AA1BBB1B51E107C0AA1FBB1FA6171C
S1130F40B70710F0A61BB70B881F991F5A95A9F76E
S1130F5080959095BC01CD010895FB01DC018D9134
S1130F60019080190110D9F3990B0895FB01DC015C
S1110F7001900D920020E1F70895F894FFCF50
S1130F7E3132333435363738392A30234F4646002A
S1130F8E5072617A6F20332D4573746F726E6F00D9
S1130F9E312D4120566973746120322D4100416414
S1130FAE6D696D696E6973747261646F72004D6FF1
S1130FBE646F00332D50656E642E20342D442E50F4
S1130FCE656E6400312D456E5F4F5020322D486F93
S1130FDE726100706F72207365677572616E636102
S1130FEE004F70657261646F722C0053656E686198
S1130FFE3A0044696769746520612073656E68619F
S113100E0031323334003233343500303132330070
S113101E53454E484120494E56414C4944410041A6
S113102E2076697374610053656C63696F6E6164D5
S113103E6F3A0041207072617A6F00522420202092
S113104E2020202020202C2000446967697465200C
S113105E6F2076616C6F7200522420202020202095
S113106E2020202C0052242020202020202020006C
S113107E5224202020202020200052242020202012
S113108E20200032202D204372656469746F003174
S113109E202D2044656269746F0053656C65636925
S11310AE6F6E61646F3A0032206F7520333A0050D0
S11310BE617263656C617300322076657A657300C4
S11310CE332076657A65730063617274616F3A20BA
S11310DE00496E736972612F6469676974650032C1
S11310EE3833303737003331333739390041707282
S11310FE6F7661646F2100506167616D656E746F08
S105110E0000DB
S9030000FC
