S010000050726F6A65746F312E7372656300
S11300000C9443000C9460000C9460000C94600009
S11300100C9460000C9460000C9460000C946000DC
S11300200C9460000C9460000C9460000C946000CC
S11300300C9460000C94C0110C9460000C9460004B
S11300400C9460000C9460000C94E8100C94600014
S11300500C9460000C9460000C9460000C9460009C
S11300600C9460000C9460003C0356035D036A0327
S113007071037A0383038C038F0392039B03BE03F0
S1130080C103E903F00311241FBECFEFD8E0DEBFA4
S1130090CDBF14E0A0E0B1E0E2E3F9E202C00590D4
S11300A00D92A833B107D9F725E0A8E3B4E001C065
S11300B01D92AF31B207E1F70E9423030C94971409
S11300C00C94000014BC109280001092B00084E0E4
S11300D0809381008CED9BE0909385008093840055
S11300E07894EFE6F0E08081816080838FEF84B9BB
S11300F08FE387B91AB810923C0410925E041092F0
S11301005C0410925D0488B18F7E88B988B18F7DBC
S113011088B9089590935B0480935A0470935704AC
S1130120609356045093EC044093EB040895909329
S113013045048093440470934704609346045093A9
S1130140EE044093ED040895EDEDF4E01082118285
S1130150128213821582148281E090E09783868351
S1130160EFEEF4E01082118212821382158214825F
S11301709783868380E090E012C0FC01EE0FFF1F9E
S1130180E80FF91FEE0FFF1FEE0FFF1FEB59FB4F98
S113019011821082108611861286138601968A3087
S11301A091055CF340E050E06EE170E088E090E09F
S11301B00E948A0046EE57E06CE070E08FE190E028
S11301C00E9497001092490410924804109243042C
S11301D01092420410923C0410925E0410925C044B
S11301E010925D0408958091EB049091EC040196C3
S11301F09093EC048093EB04CC976CF01092EC0495
S11302001092EB04809156049091570401969093B8
S11302105704809356048091560490915704CC97C8
S11302206CF0109257041092560480915A049091E5
S11302305B04019690935B0480935A0480915A0462
S113024090915B0448976CF010925B0410925A04EE
S113025080914404909145040196909345048093C1
S1130260440480914604909147048230910579F5C5
S11302702091ED043091EE0423703327232BA1F455
S113028020914404309145042E3131050CF450C0C2
S113029021E030E030934504209344040196909388
S11302A047048093460444C020914404309145049B
S11302B02D313105ECF121E030E0309345042093F9
S11302C044040196909347048093460431C08430DB
S11302D0910549F08630910531F08930910519F086
S11302E08B30910599F420914404309145042F31C9
S11302F03105F4F021E030E03093450420934404C8
S11303000196909347048093460412C020914404BC
S113031030914504203231055CF021E030E0309327
S11303204504209344040196909347048093460423
S113033080914604909147040D977CF081E090E011
S113034090934704809346048091ED049091EE04C9
S113035001969093EE048093ED04089580914804EF
S113036090914904019749F4809142049091430487
S11303700196909343048093420480915004909199
S11303805104892B49F080914A0490914B040196C1
S113039090934B0480934A0480914A0490914B04B7
S11303A08832910519F08035910519F580913C0446
S11303B0813029F481E090E00E94690E1AC0809196
S11303C05E04813029F482E090E00E94690E11C03D
S11303D080915C04813029F483E090E00E94690EEE
S11303E008C080915D04813021F484E090E00E9493
S11303F0690E80914A0490914B048837910559F411
S113040088B1806188B910924B0410924A0410920A
S113041051041092500408951F93CF93DF93C82F73
S1130420D0E010E009C00E94A4111C1302C0DF5FD9
S113043002C01C2FD0E09C2FD730A8F3892FDF9166
S1130440CF911F910895BF92CF92DF92EF92FF92C6
S11304500F931F93CF93DF93CDB7DEB72C970FB6CF
S1130460F894DEBF0FBECDBF8CE0E0E0F1E0DE012A
S1130470119601900D928A95E1F780E78BB9C12C12
S1130480D12C4CC088B1816088B988B1826088B9A8
S113049088B1846088B988B1886088B928B181E05E
S11304A090E00E2C02C0880F991F0A94E2F7809501
S11304B0822388B900E010E023C029B1A8014C5F71
S11304C05F4F81E090E002C0880F991F4A95E2F7E0
S11304D082230E940C02811111C0F701EE0FFF1F4D
S11304E0EE0DFF1D81E090E08C0F9D1FE80FF91FBA
S11304F0E00FF11FB080CC24C394D12C0F5F1F4FA9
S113050003301105D4F29FEFE91AF90A02C0E12C75
S1130510F12C84E0E816F1040CF4B4CFC114D10436
S1130520B1F38B2D2C960FB6F894DEBF0FBECDBF62
S1130530DF91CF911F910F91FF90EF90DF90CF90BB
S1130540BF900895CF93C82F611104C085B18E7FE9
S113055085B903C085B1816085B985B18F7085B9CE
S113056085B19C2F907F892B85B985B1826085B92F
S113057085B18D7F85B90E94AE1185B18F7085B923
S113058085B1C295C07FC82BC5B985B1826085B9D4
S113059085B18D7F85B90E94AE11CF91089585B143
S11305A08E7F85B985B18F7085B985B1806285B933
S11305B085B1826085B985B18D7F85B90E94AE1100
S11305C060E088E20E94A20260E086E00E94A2024B
S11305D060E08CE00E94A20208950F931F93CF93D2
S11305E08C01C0E004C061E00E94A202CF5FF80168
S11305F0EC0FF11D80818111F6CFCF911F910F91E6
S1130600089561E00E94A202089560E081E00E94E2
S1130610A2020E94B71108950F931F93CF93DF9303
S11306208C01EB010E940503C8010E94ED0260E009
S113063080EC0E94A202CE010E94ED02DF91CF91D4
S11306401F910F9108950E9462000E94CF020E94A0
S1130650A4000E94540E84E090E090934D04809393
S11306604C04E0914C04F0914D04EF30F105C8F7CF
S1130670EC5CFF4F0C944B140E9405038CE091E05A
S11306800E94ED0288B18F7E88B988B18F7D88B9C8
S11306901092C1000E942302833219F781E00E9464
S11306A0F70390934D0480934C04DBCF0E94B9046C
S11306B090934D0480934C04D4CF60E171E080E2C8
S11306C091E00E940C030E94540590934D04809382
S11306D04C04C7CF0E94810890934D0480934C042E
S11306E0C0CF0E94A9058AE090E090934D048093C6
S11306F04C04B7CF0E94A90589E090E090934D0483
S113070080934C04AECF0E94A9050E947307909376
S11307104D0480934C04A5CF0E949D07A2CF0E9454
S113072021089FCF0E9437070E94730790934D04BE
S113073080934C0496CF80913A0490913B04892B8A
S113074049F40E94FB0681E090E090933B0480937F
S11307503A0487CF81E090E090933B0480933A047D
S11307600E94730790934D0480934C040A9709F4F4
S113077078CF10923B0410923A0473CF0E94FA0887
S113078070CF80913804909139040097A1F481E0EE
S113079090E090933904809338040E94A80A9093BF
S11307A04D0480934C04892B09F05BCF10923904DB
S11307B01092380456CF019709F053CF0E949B0939
S11307C090934D0480934C04109239041092380491
S11307D048CF0E940D0C90934D0480934C0441CF5C
S11307E06EE271E081E391E00E940C03FFCF81117E
S11307F003C00E945A110895813019F40E943211E5
S1130800089580E090E00895AF92BF92CF92DF9276
S1130810EF92FF920F931F93CF938C010697E1F40D
S113082080914C0490914D048630910529F08A30D2
S1130830910511F0099781F40E94050368E371E0C2
S113084081E491E00E940C03AA24A394B12CE12C2E
S1130850F12CC12CD12C7EC00E9405036BE471E005
S113086083E591E00E940C03EFCF0E942302C82F7E
S11308708332F9F40E946C10069719F406301105BE
S113088041F00E946C100797A1F40630110589F419
S113089008C06894AA24A1F8B12CEE24E394F12CA6
S11308A008C00F2EF3E0AF2EB12CF02DEE24E3940C
S11308B0F12CCA3209F442C0C33209F43FC00430F7
S11308C0110551F4F601E15CFB4FC0838AE20E94FA
S11308D001038FEFC81AD80A06301105B1F48091CC
S11308E04C0490914D048630910529F08A3091058D
S11308F011F0099751F4F601EB51FB4FC0838C2F93
S11309000E9401038FEFC81AD80A0630110581F43A
S113091080914C0490914D04089751F4F601E15AEA
S1130920FB4FC0838AE20E9401038FEFC81AD80AE2
S1130930C016D10619F4EE24E394F12CCA3251F412
S113094080E00E94F703019729F4A12CB12CEE2436
S1130950E394F12CE114F10409F487CFC501CF919C
S11309601F910F91FF90EF90DF90CF90BF90AF90C9
S11309700895EF92FF920F931F93CF9384E090E03A
S11309800E940404892B19F000E010E002C001E089
S113099010E0E12CF12C7DC00E942302C82F8A3282
S11309A049F480E00E94F703019721F4E12CF12C33
S11309B001E010E0C33209F06CC062E671E08FE33D
S11309C094E00E948714892BE1F48091E3049091D0
S11309D0E404019769F481E090E090934F048093DC
S11309E04E046894EE24E1F8F12C01E010E051C0CB
S11309F067E671E084E791E00E940C030E947F1196
S1130A0048C064E871E08FE394E00E948714892B66
S1130A10F9F48091F5049091F60481309105C1F4C4
S1130A20019769F482E090E090934F0480934E0420
S1130A306894EE24E1F8F12C01E010E02AC067E6A6
S1130A4071E089E891E00E940C030E947F1121C0AB
S1130A5069E971E08FE394E00E948714892B71F4B3
S1130A6083E090E090934F0480934E040F2EF3E0C4
S1130A70EF2EF12CF02D01E010E00BC00E940503D5
S1130A808EE991E00E94ED020E947F11EE24E3942E
S1130A90F12C0115110509F47FCFC701CF911F91E6
S1130AA00F91FF90EF900895EF92FF920F931F9391
S1130AB0CF93E12CF12C00E010E040C00E9423020F
S1130AC0C82F8A3249F480E00E94F703892B21F071
S1130AD0E12CF12C01E010E0C13371F46EEA71E015
S1130AE086EB91E00E940C030E947F116894EE242F
S1130AF0E2F8F12C01E010E0C23379F462EC71E029
S1130B0086EB91E00E940C030E947F110F2EF5E00A
S1130B10EF2EF12CF02D01E010E0C33379F468E1FD
S1130B2071E086EB91E00E940C030E947F1101E0CA
S1130B3010E00F2EF6E0EF2EF12CF02D011511052B
S1130B4009F4BCCFC701CF911F910F91FF90EF9093
S1130B500895CF92DF92EF92FF920F931F93CF935A
S1130B60DF93CDB7DEB72C970FB6F894DEBF0FBE78
S1130B70CDBF19821A821B821C820E9405036AEC73
S1130B8071E088ED91E00E940C03C12CD12C00E0AF
S1130B9010E0B8C00E942302F82E43E2841303C07D
S1130BA0CC24C394D12C53E2F51609F4ABC0013024
S1130BB0110511F124F40115110549F0A3C0023007
S1130BC01105D1F10330110509F464C09BC00E94E2
S1130BD005036AEC71E088ED91E00E940C03E1E00A
S1130BE0F0E0EC0FFD1FE00FF11FF0828F2D0E944B
S1130BF001030F5F1F4F86C00E94050367EE71E07B
S1130C0088ED91E00E940C03E1E0F0E0EC0FFD1FA1
S1130C10E00FF11FF082F801319781E090E08C0F32
S1130C209D1FE80FF91F80810E9401038F2D0E94F0
S1130C3001030F5F1F4F66C00E94050364EF71E05C
S1130C4088ED91E00E940C03E1E0F0E0EC0FFD1F61
S1130C50E00FF11FF082F801329741E050E04C0FB1
S1130C605D1FE40FF51F80810E9401038CE20E9446
S1130C700103F801319781E090E08C0F9D1FE80F8C
S1130C80F91F80810E9401038F2D0E9401030F5FD1
S1130C901F4F38C00E9405036FEF71E088ED91E0AB
S1130CA00E940C03E1E0F0E0EC0FFD1FE00FF11FE8
S1130CB0F082F801339741E050E04C0F5D1FE40FE0
S1130CC0F51F80810E940103F801329781E090E0D2
S1130CD08C0F9D1FE80FF91F80810E9401038CE295
S1130CE00E940103F801319741E050E04C0F5D1F71
S1130CF0E40FF51F80810E9401038F2D0E940103E0
S1130D000F5F1F4FC114D10409F444CF20E030E039
S1130D1016C0E1E0F0E0EC0FFD1FE20FF31F80814D
S1130D2090E0C097F901EE0FFF1F41E050E04C0F37
S1130D305D1FE40FF51F958384832F5F3F4F24309D
S1130D4031053CF38D819E81BC01660F771F880FAE
S1130D50991F880F991F880F991F860F971F6F81FE
S1130D6078858C01060F171F69857A85072E000C7C
S1130D70880B990B0E941F1320E030E040E251E4FD
S1130D800E9475126B017C01B801110F880B990B3D
S1130D900E941F13A70196010E9409126B017C0196
S1130DA06B857C85072E000C880B990B0E941F1302
S1130DB020E030E048EC52E40E9475129B01AC0143
S1130DC0C701B6010E940912609352047093530440
S1130DD080935404909355042C960FB6F894DEBF78
S1130DE00FBECDBFDF91CF911F910F91FF90EF9078
S1130DF0DF90CF9008950F931F93CF930E94050324
S1130E0069E072E085E192E00E940C0300E010E0EA
S1130E1027C00E942302C82F813381F481E090E02F
S1130E20909359048093580469E172E080E292E05F
S1130E300E940C030E947F1101E010E0C23381F490
S1130E4082E090E090935904809358046DE072E03E
S1130E5080E292E00E940C030E947F1101E010E006
S1130E6001151105B1F2CF911F910F9108950F93C0
S1130E701F93CF930E9405036DE272E085E392E035
S1130E800E940C0300E010E027C00E942302C82F38
S1130E90823381F46EE372E080E292E00E940C03FC
S1130EA00E947F1182E090E090933E0480933D0481
S1130EB001E010E0C33381F466E472E080E292E082
S1130EC00E940C030E947F1183E090E090933E0403
S1130ED080933D0401E010E001151105B1F2CF91BA
S1130EE01F910F9108950F931F93CF93DF9386E083
S1130EF090E00E940404009719F0C0E0D0E002C022
S1130F00C1E0D0E08230910519F000E010E004C0A7
S1130F1008E010E0C1E0D0E0039739F402E010E00B
S1130F20C1E0D0E002C00E9423022097E1F3C8018F
S1130F30DF91CF911F910F9108950F931F93CF933A
S1130F40DF930E9405036EE472E089E592E00E945B
S1130F500C030E947F1184E090E00E940404C0E02E
S1130F60D0E059C00E942302833209F054C000919A
S1130F704E0410914F0401301105F9F462E671E05A
S1130F808FE394E00E948714892BB9F4CDEDD4E06B
S1130F9020915204309153044091540450915504CB
S1130FA0688179818A819B810E9408126883798390
S1130FB08A839B83C1E0D0E02EC002301105F9F48E
S1130FC064E871E08FE394E00E948714892BB9F4FC
S1130FD0CFEED4E020915204309153044091540454
S1130FE050915504688179818A819B810E940812FD
S1130FF0688379838A839B83C1E0D0E00CC00E941C
S113100005038CE692E00E94ED020E947F1184E0C9
S113101090E00E940404209709F4A4CF0E940503E1
S11310206BE772E088E892E00E940C030E947F1153
S113103010924D0410924C04DF91CF911F910F91A7
S113104008950F931F93CF93DF9386E090E00E945F
S11310500404892B19F0C0E0D0E00BC0C1E0D0E05B
S113106008C00E942302833221F481E090E00E94B0
S1131070690E2097B1F3C0914E04D0914F04C13052
S1131080D105B1F40DED14E0F80160817181828124
S1131090938120915204309153044091540450910F
S11310A055040E940912F80160837183828393833B
S11310B02297A1F4CFEED4E0688179818A819B8163
S11310C0209152043091530440915404509155049A
S11310D00E940912688379838A839B836AE972E098
S11310E084EA92E00E940C030E947F1181E090E068
S11310F090934D0480934C04DF91CF911F910F91F5
S11311000895EF92FF920F931F93CF930E940503CC
S11311106EEA72E08EEB92E00E940C030E947F1153
S11311200E94050363EC72E081ED92E00E940C03DF
S11311300E947F1100E010E052C00E942302C82FD9
S1131140813379F460EE72E08BEE92E00E940C033E
S11311500E947F110F2EFBE0EF2EF12CF02D01E009
S113116010E0C23379F46BEF72E080E292E00E9407
S11311700C030E947F110F2EFCE0EF2EF12CF02DBA
S113118001E010E0C33379F46BE073E080E292E0B5
S11311900E940C030E947F110F2EFDE0EF2EF12C14
S11311A0F02D01E010E0C43379F466E173E080E2ED
S11311B092E00E940C030E947F110F2EFFE0EF2E9D
S11311C0F12CF02D01E010E0CA3249F480E00E94D5
S11311D0F703019721F4E12CF12C01E010E0011553
S11311E0110509F4AACFC701CF911F910F91FF9068
S11311F0EF900895EF92FF920F931F93CF930E9465
S1131200050361E273E084E393E00E940C030E940F
S11312107F11E12CF12C00E010E022C00E94230297
S1131220C82F813369F46FE373E080E292E00E9497
S11312300C030E947F11EE24E394F12C01E010E0F2
S1131240C23371F46AE473E080E292E00E940C031A
S11312500E947F1101E010E06894EE24E1F8F12C83
S113126001151105D9F20E94050365E573E085E6D1
S113127093E00E940C030E947F1153C00E9423023A
S1131280C82F813341F581E0E816F10481F463E766
S113129073E08FE393E00E940C030E947F1181E0CE
S11312A090E09093E4048093E30400E010E082E093
S11312B0E816F10481F463E773E08AE493E00E94A2
S11312C00C030E947F1181E090E09093F6048093D8
S11312D0F50400E010E0C23321F581E0E816F104E2
S11312E071F46EE773E08FE393E00E940C030E94B5
S11312F07F111092E4041092E30400E010E082E015
S1131300E816F10471F46EE773E08AE493E00E9456
S11313100C030E947F111092F6041092F50400E071
S113132010E00115110509F0A9CFCF911F910F917C
S1131330FF90EF900895AF92BF92CF92DF92EF9219
S1131340FF920F931F93CF93DF9300D000D000D070
S1131350CDB7DEB7E12CF12CC12CD12CE3C0E114C4
S1131360F10451F40E94050382EE93E00E94ED0221
S113137060E080EC0E94A2020E942302182F8332B4
S113138009F483C08A3209F480C086E0E816F104C7
S11313900CF07BC0E1E0F0E0EC0FFD1FEE0DFF1D53
S11313A01083812F0E9401038FEFE81AF80A82E06C
S11313B0E816F10421F084E0E816F10419F48AE354
S11313C00E94010386E0E816F10409F05EC08981F9
S11313D090E0C0979C01220F331F880F991F880F3C
S11313E0991F880F991F820F931F2A8130E0205381
S11313F03109820F931F8831910584F52B8130E0E8
S113140020533109A901440F551F220F331F220F06
S1131410331F220F331F240F351F4C8150E04053DC
S11314205109240F351F2C333105C4F44D8150E08C
S113143040535109BA01660F771F440F551F440FDB
S1131440551F440F551F460F571F6E8170E06053A0
S11314507109460F571F4C3351055CF062E772E087
S113146081EF93E00E940C030E947F11E12CF12C88
S11314700CC090935B0480935A04309357042093D8
S113148056045093EC044093EB04133261F486E069
S1131490E816F10441F40F2EF3E0AF2EB12CF02D39
S11314A0CC24C394D12C1A32E9F580E00E94F703CE
S11314B0019799F10E94050382EE93E00E94ED02E8
S11314C060E080EC0E94A20281E0E81AF10800E0EA
S11314D010E014C00230110519F00430110519F49C
S11314E08AE30E940103E1E0F0E0EC0FFD1FE00F4E
S11314F0F11F80810E9401030F5F1F4F0E151F050E
S11315004CF382E0E816F10421F084E0E816F104DB
S113151049F48AE30E94010305C0A12CB12CCC2418
S1131520C394D12CC114D10409F419CFC501269652
S11315300FB6F894DEBF0FBECDBFDF91CF911F91E0
S11315400F91FF90EF90DF90CF90BF90AF900895F0
S1131550AF92BF92CF92DF92EF92FF920F931F93BD
S1131560CF93DF93CDB7DEB728970FB6F894DEBFDD
S11315700FBECDBFE12CF12CC12CD12C38C1E1140C
S1131580F10451F40E94050386EF93E00E94ED02FA
S113159060E080EC0E94A2020E942302182F833292
S11315A009F4D8C08A3209F4D5C088E0E816F104F9
S11315B00CF0D0C0E1E0F0E0EC0FFD1FEE0DFF1DDC
S11315C01083812F0E9401038FEFE81AF80A82E04A
S11315D0E816F10421F084E0E816F10419F48FE22E
S11315E00E94010388E0E816F10409F0B3C0898180
S11315F090E0C0979C01220F331F880F991F880F1A
S1131600991F880F991F820F931F2A8130E020535E
S11316103109820F931F803291050CF052C02B8147
S113162030E020533109A901440F551F220F331F05
S1131630220F331F220F331F240F351F4C8150E01C
S113164040535109240F351F2D303105D4F58D3108
S113165091050CF441C022303105F1F56D8170E043
S113166060537109E8EEF3E06E9FA0016F9F500D87
S11316707E9F500D1124EE81F0E0F097A4E6AE9F1A
S1131680B001AF9F700D1124640F751F4F8150E09E
S113169040535109FA01EE0FFF1F440F551F440F29
S11316A0551F440F551F4E0F5F1F460F571F688568
S11316B070E060537109460F571F43705527452B3F
S11316C059F062E772E085E094E00E940C030E9406
S11316D07F11E12CF12C3EC0909345048093440487
S11316E030934704209346042D8130E02053310980
S11316F088EE93E0289FA001299F500D389F500D3C
S113170011242E8130E02053310964E6629FC00128
S1131710639F900D1124480F591F2F8130E0C90198
S1131720C097BC01660F771F9C01220F331F220F45
S1131730331F220F331FCB01820F931F840F951F7A
S1131740288530E020533109820F931F9093EE04D3
S11317508093ED04133261F488E0E816F10441F457
S11317600F2EFCE0AF2EB12CF02DCC24C394D12C41
S11317701A32E9F580E00E94F703019799F10E947B
S1131780050386EF93E00E94ED0260E080EC0E9486
S1131790A20281E0E81AF10800E010E014C002306F
S11317A0110519F00430110519F48FE20E940103A8
S11317B0E1E0F0E0EC0FFD1FE00FF11F80810E94DB
S11317C001030F5F1F4F0E151F054CF382E0E8164F
S11317D0F10421F084E0E816F10449F48FE20E9458
S11317E0010305C0A12CB12CCC24C394D12CC11469
S11317F0D10409F4C4CEC50128960FB6F894DEBF0F
S11318000FBECDBFDF91CF911F910F91FF90EF904D
S1131810DF90CF90BF90AF9008954F925F926F92F8
S11318207F928F929F92AF92BF92CF92DF92EF926C
S1131830FF920F931F93CF93DF930FEF1FEF40E0BF
S113184050E080E090E018C0FC01EE0FFF1FE80FAD
S1131850F91FEE0FFF1FEE0FFF1FEB59FB4F208107
S113186031812130310539F44F5F5F4F0F3F2FEF46
S1131870120709F48C0101968A3091052CF3452B4B
S113188061F46AE074E085E194E00E940C030E9434
S11318907F11EE24E394F12C02C0E12CF12C0F2EE5
S11318A0F3E0CF2ED12CF02DC0E0D0E08AC1F801B6
S11318B0EE0FFF1FE00FF11FEE0FFF1FEE0FFF1FD4
S11318C0EB59FB4F80819181892B09F4D9C00E9487
S11318D0050383E294E00E94ED025801AA0CBB1CAC
S11318E0A00EB11EC501880F991F880F991FFC0116
S11318F0EB59FB4F5F01608571858285938520E0FC
S113190030E048EC52E40E94AB130E94E712CB0192
S113191068EE73E00E941814CB010F2EFAE08F2EAC
S1131920912CF02DB4010E941814805D0E940103D3
S1131930F501608571858285938520E030E048EC6F
S113194052E40E94AB130E94E712CB0164E670E0FC
S11319500E941814CB01B4010E941814805D0E94E7
S113196001038CE20E940103F50160857185828583
S1131970938520E030E048EC52E40E94AB130E94CF
S1131980E712CB01B4010E941814CB01B4010E94E8
S11319901814805D0E940103F501608571858285BC
S11319A0938520E030E048EC52E40E94AB130E949F
S11319B0E712CB01B4010E941814805D0E94010358
S11319C0F50186819781B4010E941814282FCB0158
S11319D0B4010E9418140F2EF0E34F2EF02D480E80
S11319E00F2EF0E35F2EF02D520E84819581B40109
S11319F00E941814282FCB01B4010E9418140F2E32
S1131A00F0E36F2EF02D680E0F2EF0E37F2EF02DF5
S1131A10720E82819381B4010E941814282FCB0185
S1131A20B4010E9418140F2EF0E3AF2EF02DA80E6F
S1131A300F2EF0E3BF2EF02DB20E80E20E940103C0
S1131A40842D0E940103852D0E9401038FE20E94D0
S1131A500103862D0E940103872D0E9401038FE25A
S1131A600E9401038A2D0E9401038B2D0E94010311
S1131A7060E080EC0E94A20286E294E00E94ED0203
S1131A800E942302833251F524C02196FE01EE0FF9
S1131A90FF1FEC0FFD1FEE0FFF1FEE0FFF1FEB5993
S1131AA0FB4F20813181232B31F0CA30D1051CF446
S1131AB08E0141E050E0CA30D10569F441E050E0C4
S1131AC00F2EF3E0CF2ED12CF02DEE24E394F12C45
S1131AD002C040E050E041155105B9F2803309F0ED
S1131AE064C0F801EE0FFF1FE00FF11FEE0FFF1FA0
S1131AF0EE0FFF1FEB59FB4F11821082428153817D
S1131B002091ED043091EE0442175307A1F5F8013A
S1131B10EE0FFF1FE00FF11FEE0FFF1FEE0FFF1F71
S1131B20EB59FB4F44815581209146043091470481
S1131B304217530749F5F801EE0FFF1FE00FF11F9D
S1131B40EE0FFF1FEE0FFF1FEB59FB4F468157812E
S1131B50209144043091450442175307F1F498B19D
S1131B609F7D98B90F2EFDE0CF2ED12CF02DEE24C1
S1131B70E394F12C1AC00F2EFDE0CF2ED12CF02DC2
S1131B80EE24E394F12C11C00F2EFDE0CF2ED12CC6
S1131B90F02DEE24E394F12C08C00F2EFDE0CF2E9F
S1131BA0D12CF02DEE24E394F12C8A3251F480E010
S1131BB00E94F703019729F4C12CD12CEE24E3945D
S1131BC0F12CE114F10409F472CEC601DF91CF9136
S1131BD01F910F91FF90EF90DF90CF90BF90AF9047
S1131BE09F908F907F906F905F904F900895CF93C8
S1131BF0DF93C0E0D0E051C0FE01EE0FFF1FEC0FF9
S1131C00FD1FEE0FFF1FEE0FFF1FEB59FB4F8081EF
S1131C109181892B09F440C0FE01EE0FFF1FEC0FE8
S1131C20FD1FEE0FFF1FEE0FFF1FEB59FB4F22812D
S1131C3033818091ED049091EE042817390761F502
S1131C40FE01EE0FFF1FEC0FFD1FEE0FFF1FEE0F47
S1131C50FF1FEB59FB4F24813581809146049091FD
S1131C60470428173907C1F4FE01EE0FFF1FEC0FDC
S1131C70FD1FEE0FFF1FEE0FFF1FEB59FB4F2681D9
S1131C80378180914404909145042817390721F441
S1131C9084E090E00E94690E2196CA30D1050CF4CC
S1131CA0ABCFDF91CF91089583E38093C40010926A
S1131CB0C50088E98093C100E2ECF0E08081866091
S1131CC0808308958091C0008823E4F78091C60042
S1131CD008958F929F92AF92BF92CF92DF92EF922C
S1131CE0FF920F931F93CF93DF93CDB7DEB7649723
S1131CF00FB6F894DEBF0FBECDBF21E030E03093C5
S1131D005104209350048230910509F47DC01CF4E1
S1131D10019749F04EC18330910509F4E7C0049757
S1131D2009F44CC146C181E080933C0486E5898373
S1131D308A8380E090E017C0FC013296DC01AB514D
S1131D40BB4F2C9141E050E04C0F5D1FE40FF51F99
S1131D502083FC013896DC01A15ABB4F2C91E40F7F
S1131D60F51F208301968630910534F320E030E09E
S1131D7048EC52E4609152047091530480915404ED
S1131D80909155040E94AB130E94E7124B015C0131
S1131D9028EE33E040E050E00E942C140F2EFAE0CD
S1131DA0CF2ED12CE12CF12CF02DCA01B901A701C1
S1131DB096010E942C1480E3860F8F87C501B4011D
S1131DC024E630E040E050E00E942C14CA01B9013E
S1131DD0A70196010E942C1480E3860F888BC5010D
S1131DE0B401A70196010E942C14162FCA01B9014F
S1131DF0A70196010E942C1480E3860F898B105D45
S1131E001A8B8DE08B8BD5C081E080935E0486E5D0
S1131E10898380E58A8380E090E019C0FC013296D2
S1131E20DC01AB51BB4F2C9141E050E04C0F5D1FE6
S1131E30E40FF51F205D2083FC013896DC01A15AD4
S1131E40BB4F2C91E40FF51F205D20830196863053
S1131E50910524F380913D04805D8F87C0905204E6
S1131E60D0905304E0905404F090550420E030E006
S1131E7048EC52E4C701B6010E94AB130E94E7127A
S1131E809B01CB0168EE73E00E941814CB010AE0B9
S1131E9010E0B8010E941814805D888BC90164E6C3
S1131EA070E00E941814CB01B8010E941814805DE0
S1131EB0898BC901B8010E941814CB01B8010E9492
S1131EC01814805D8A8BC701B6010E94E71224E6CC
S1131ED0269FA001279F500D1124CA01B8010E941A
S1131EE01814805D8B8B8DE08C8B63C081E08093B4
S1131EF05C0485E4898386E58A8380E090E00FC0F2
S1131F00FC013296DC01AB51BB4F2C9141E050E017
S1131F104C0F5D1FE40FF51F205D20830196863072
S1131F20910574F3C0905204D0905304E09054048B
S1131F30F090550420E030E048EC52E4C701B601CB
S1131F400E94AB130E94E7129B01CB0168EE73E081
S1131F500E941814CB010AE010E0B8010E94181482
S1131F60805D8987C90164E670E00E941814CB0182
S1131F70B8010E941814805D8A87C901B8010E94C3
S1131F801814CB01B8010E941814805D8B87C70117
S1131F90B6010E94E71224E6269FA001279F500D58
S1131FA01124CA01B8010E941814805D8C878DE049
S1131FB08D8740E050E020E030E078C081E08093FD
S1131FC05D0481E4898380E58A8380E090E00FC02A
S1131FD0FC013296DC01AB51BB4F2C9141E050E047
S1131FE04C0F5D1FE40FF51F205D208301968630A2
S1131FF0910574F3C0905204D0905304E0905404BB
S1132000F090550420E030E048EC52E4C701B601FA
S11320100E94AB130E94E7129B01CB0168EE73E0B0
S11320200E941814CB010AE010E0B8010E941814B1
S1132030805D8987C90164E670E00E941814CB01B1
S1132040B8010E941814805D8A87C901B8010E94F2
S11320501814CB01B8010E941814805D8B87C70146
S1132060B6010E94E71224E6269FA001279F500D87
S11320701124CA01B8010E941814805D8C878DE078
S11320808D8797CF8091C00085FFFCCFE1E0F0E021
S1132090EC0FFD1FE20FF31F80818093C600808147
S11320A08D3011F441E050E02F5F3F4F4115510551
S11320B049F364960FB6F894DEBF0FBECDBFDF912F
S11320C0CF911F910F91FF90EF90DF90CF90BF9031
S11320D0AF909F908F90089588B18F7E88B990912A
S11320E00B059F3439F480910C058B3431F020E0DA
S11320F030E005C020E030E002C021E030E093345D
S113210031F480910C05863411F422E030E09335EB
S113211031F480910C05863411F423E030E09335DA
S113212031F480910C05893411F424E030E09035C9
S113213091F480910C058E3471F480915D048130AA
S113214041F410925D0488B1806288B925E030E0E2
S113215002C025E030E090910B059334B9F48091EE
S11321600C058D3499F40BC0F901E35FFA4F8081BB
S1132170F901EB51FB4F80832F5F3F4F02C020E0FA
S113218030E02630310584F326E030E09334F1F476
S113219080910C058735D1F412C0FC01E35FFA4F3E
S11321A02081FC01EB51FB4F2083FC01ED5EFA4FD3
S11321B02081FC01E15AFB4F2083019602C080E09C
S11321C090E0863091054CF327E030E0C901089592
S11321D01F920F920FB60F9211240F931F932F93F8
S11321E03F934F935F936F937F938F939F93AF939B
S11321F0BF93CF93DF93EF93FF9300E010E0C0E031
S1132200D0E00CC00E94620EFE01E950FB4F8083B7
S11322108D3011F0219602C001E010E00115110586
S113222089F367EF74E08BE095E00E9490141092BC
S11322304B0410924A040E946C10FF91EF91DF91BD
S1132240CF91BF91AF919F918F917F916F915F914A
S11322504F913F912F911F910F910F900FBE0F90AF
S11322601F90189587E088B981E090E09093490425
S11322708093480420E030E008C0809142049091AB
S11322804304029711F421E030E04E9903C0211574
S1132290310599F3109249041092480410924304B2
S11322A010924204232B19F480E090E0089581E019
S11322B090E0089587E088B981E090E09093490424
S11322C08093480420E007C0809142049091430425
S11322D0029709F421E04C9902C02223A9F3109239
S11322E049041092480410924304109242042111AC
S11322F003C080E090E0089581E090E0089581E0DB
S113230090E09093490480934804109243041092FF
S1132310420420E030E00CC08091420490914304D8
S1132320039731F48BEF91E00E94ED0221E030E05D
S11323302115310589F31092490410924804109232
S1132340430410924204089584E085BD82EC86BD66
S1132350A89BFECF85B3816085BB089582E085BDCF
S113236080EB86BDA89BFECF81E085BB089584E009
S113237085BD89E986BDA89BFECF81E085BB089514
S11323801F920F920FB60F9211242F933F934F93E6
S11323905F936F937F938F939F93AF93BF93EF93C9
S11323A0FF938CED9BE090938500809384000E94C2
S11323B0F3000E94AE0180915A0490915B048C302A
S11323C0910529F08231910511F0469771F48091BD
S11323D0560490915704892B41F48091EB04909119
S11323E0EC04892B11F40E94F70D81E086BBFF9168
S11323F0EF91BF91AF919F918F917F916F915F9179
S11324004F913F912F910F900FBE0F901F901895F1
S11324105058BB27AA270E9420120C9471130E94C3
S1132420631338F00E946A1320F039F49F3F19F4C3
S113243026F40C9460130EF4E095E7FB0C945A1305
S1132440E92F0E94821358F3BA17620773078407AF
S1132450950720F079F4A6F50C94A4130EF4E095F6
S11324600B2EBA2FA02D0B01B90190010C01CA014A
S1132470A0011124FF27591B99F0593F50F4503EF5
S113248068F11A16F040A22F232F342F4427585FE7
S1132490F3CF469537952795A795F0405395C9F7FF
S11324A07EF41F16BA0B620B730B840BBAF09150B7
S11324B0A1F0FF0FBB1F661F771F881FC2F70EC056
S11324C0BA0F621F731F841F48F487957795679529
S11324D0B795F7959E3F08F0B0CF9395880F08F015
S11324E09927EE0F9795879508950E9489120C9469
S11324F071130E946A1358F00E94631340F029F488
S11325005F3F29F00C945A1351110C94A5130C94A9
S113251060130E94821368F39923B1F3552391F356
S1132520951B550BBB27AA2762177307840738F03E
S11325309F5F5F4F220F331F441FAA1FA9F335D09B
S11325400E2E3AF0E0E832D091505040E695001C4F
S1132550CAF72BD0FE2F29D0660F771F881FBB1F09
S1132560261737074807AB07B0E809F0BB0B802DE7
S1132570BF01FF2793585F4F3AF09E3F510578F013
S11325800C945A130C94A5135F3FE4F3983ED4F3D0
S1132590869577956795B795F7959F5FC9F7880FE7
S11325A0911D9695879597F90895E1E0660F771F39
S11325B0881FBB1F621773078407BA0720F0621BCA
S11325C0730B840BBA0BEE1F88F7E09508950E94F5
S11325D0EE126894B1110C94A51308950E948A1305
S11325E088F09F5798F0B92F9927B751B0F0E1F0D0
S11325F0660F771F881F991F1AF0BA95C9F714C080
S1132600B13091F00E94A413B1E008950C94A41386
S1132610672F782F8827B85F39F0B93FCCF38695B8
S113262077956795B395D9F73EF490958095709515
S113263061957F4F8F4F9F4F0895E89409C097FB92
S11326403EF490958095709561957F4F8F4F9F4F85
S11326509923A9F0F92F96E9BB279395F6958795C9
S113266077956795B795F111F8CFFAF4BB0F11F48C
S113267060FF1BC06F5F7F4F8F4F9F4F16C0882333
S113268011F096E911C0772321F09EE8872F762F69
S113269005C0662371F096E8862F70E060E02AF0AA
S11326A09A95660F771F881FDAF7880F9695879596
S11326B097F9089597F99F6780E870E060E00895BE
S11326C09FEF80EC089500240A9416161706180646
S11326D00906089500240A94121613061406050622
S11326E00895092E0394000C11F4882352F0BB0FB3
S11326F040F4BF2B11F460FF04C06F5F7F4F8F4F16
S11327009F4F089557FD9058440F551F59F05F3F50
S113271071F04795880F97FB991F61F09F3F79F0FF
S113272087950895121613061406551FF2CF469581
S1132730F1DF08C0161617061806991FF1CF869503
S11327407105610508940895E894BB2766277727E7
S1132750CB0197F908950E94BE130C9471130E9443
S1132760631338F00E946A1320F0952311F00C943F
S11327705A130C94601311240C94A5130E94821311
S113278070F3959FC1F3950F50E0551F629FF001C0
S1132790729FBB27F00DB11D639FAA27F00DB11DD9
S11327A0AA1F649F6627B00DA11D661F829F222762
S11327B0B00DA11D621F739FB00DA11D621F839FE9
S11327C0A00D611D221F749F3327A00D611D231FBF
S11327D0849F600D211D822F762F6A2F11249F570D
S11327E050409AF0F1F088234AF0EE0FFF1FBB1F10
S11327F0661F771F881F91505040A9F79E3F5105CF
S113280080F00C945A130C94A5135F3FE4F3983EA4
S1132810D4F3869577956795B795F795E7959F5F78
S1132820C1F7FE2B880F911D9695879597F908950A
S113283097FB072E16F4009407D077FD09D00E9469
S1132840511407FC05D03EF4909581959F4F08954F
S1132850709561957F4F0895052E97FB1EF40094A3
S11328600E94431457FD07D00E94651407FC03D04F
S11328704EF40C94431450954095309521953F4F58
S11328804F4F5F4F089590958095709561957F4F58
S11328908F4F9F4F0895EE0FFF1F0590F491E02D89
S11328A00994AA1BBB1B51E107C0AA1FBB1FA61793
S11328B0B70710F0A61BB70B881F991F5A95A9F7E5
S11328C080959095BC01CD010895A1E21A2EAA1B12
S11328D0BB1BFD010DC0AA1FBB1FEE1FFF1FA217CC
S11328E0B307E407F50720F0A21BB30BE40BF50BC9
S11328F0661F771F881F991F1A9469F76095709552
S1132900809590959B01AC01BD01CF010895FB0119
S1132910DC018D91019080190110D9F3990B089570
S1132920FB01DC0101900D920020E1F70895F89479
S1052930FFCFD3
S11329323132333435363738392A30234F4646005C
S11329425072617A6F20332D4573746F726E6F000B
S1132952312D4120566973746120322D4100313486
S11329620065737461646F0043617274616F3A202D
S1132972004E756D65726F20646F0053656E6861F9
S11329823A200044696769746520612073656E6842
S1132992610031323334006465736162696C697455
S11329A261646F004F70657261646F7220312065DB
S11329B27374610032333435004F70657261646F31
S11329C27220322065737461003031323300534512
S11329D24E484120494E56414C4944412100412030
S11329E276697374610053656C63696F6E61646FB9
S11329F23A0041207072617A6F0052242020202014
S1132A0220202020202C2000446967697465206FEF
S1132A122076616C6F720052242020202020202016
S1132A2220202C005224202020202020202000526C
S1132A3224202020202020200032202D20437265D3
S1132A426469746F0031202D2044656269746F00DB
S1132A5253656C6563696F6E61646F3A0032206F0F
S1132A627520333A0050617263656C6173003220E1
S1132A7276657A657300332076657A6573007375BB
S1132A82612073656E68612E004F70657261646FB8
S1132A92722C20636F6E6669726D650053454E48F1
S1132AA24120494E56414C49444100436F6D2073C5
S1132AB275636573736F21004573746F726E6F2053
S1132AC27265616C697A61646F004170726F7661DC
S1132AD2646F2100506167616D656E746F004164BB
S1132AE26D696D696E6973747261646F72004D6FA2
S1132AF2646F00332D50656E6420342D52656C2E44
S1132B0200312D4F5020322D446174612F487200E0
S1132B124F70657261646F726573004861622F441D
S1132B2265736162696C6974617200416C74657287
S1132B32617220446174612F48720050656E64654D
S1132B426E636961730052656C61746F72696F734D
S1132B520031202D204F5045312C2032202D204F82
S1132B625045320053656C6563696F6E653A004F78
S1132B7270657261646F722031004F7065726164B6
S1132B826F7220320032202D204465736162696CB9
S1132B92697461720031202D20486162696C697424
S1132BA2617200486162696C697461646F004465B2
S1132BB2736162696C697461646F004F7065722E2F
S1132BC220332D4573746F726E6F7300312D446917
S1132BD26120617475616C20322D506F72005265F0
S1132BE26C61746F72696F20646F20646961005252
S1132BF2656C61746F72696F20706F72204F5045FB
S1132C020052656C61746F72696F20706F204F504F
S1132C124500446967697465206120686F72613A8E
S1132C2200484F5241004469676974652061206419
S1132C326174613A004441544100456E636F6E749D
S1132C4272616461004E656E68756D612050656ED7
S1132C52642E0052240064657361623A302020209D
S10B2C6270726F783A23000040
S9030000FC
