:100000000C943B000C9458000C9458000C9458002D
:100010000C9458000C9458000C9458000C94580000
:100020000C9458000C9458000C9458000C945800F0
:100030000C9458000C9458000C9458000C945800E0
:100040000C9458000C9458000C9458000C945800D0
:100050000C9458000C9458000C9458000C945800C0
:100060000C9458000C945800A001B201B901C601CB
:10007000CD01D001D70111241FBECFEFD8E0DEBFE4
:10008000CDBF11E0A0E0B1E0E0E0F5E002C00590F6
:100090000D92A03AB107D9F721E0A0EAB1E001C082
:1000A0001D92AB3AB207E1F70E948B010C947E02DD
:1000B0000C9400008FEF84B98FE087B91AB80895C7
:1000C000089514BC84E085BD82EC86BDA89BFECF5C
:1000D00085B3816085BB08951F93CF93DF93C82FAD
:1000E000D0E010E009C00E9461001C1302C0DF5F75
:1000F00002C01C2FD0E09C2FD730A8F3892FDF91AE
:10010000CF911F910895BF92CF92DF92EF92FF920D
:100110000F931F93CF93DF93CDB7DEB72C970FB616
:10012000F894DEBF0FBECDBF8CE0E0E0F1E0DE0171
:10013000119601900D928A95E1F780E78BB9C12C59
:10014000D12C42C08FE088B928B181E090E00E2C1C
:1001500002C0880F991F0A94E2F78095822388B91C
:1001600000E010E023C029B1A8014C5F5F4F81E09F
:1001700090E002C0880F991F4A95E2F782230E94FF
:100180006C00811111C0F701EE0FFF1FEE0DFF1D76
:1001900081E090E08C0F9D1FE80FF91FE00FF11F29
:1001A000B080CC24C394D12C0F5F1F4F03301105B6
:1001B000D4F29FEFE91AF90A02C0E12CF12C84E095
:1001C000E816F1040CF4BECFC114D104B1F38B2DA9
:1001D0002C960FB6F894DEBF0FBECDBFDF91CF9146
:1001E0001F910F91FF90EF90DF90CF90BF900895F7
:1001F00082E085BD80EB86BDA89BFECF81E085BBFC
:10020000089584E085BD89E986BDA89BFECF81E085
:1002100085BB0895CF93C82F611104C085B18E7F2F
:1002200085B903C085B1816085B985B18F7085B905
:1002300085B19C2F907F892B85B985B1826085B966
:1002400085B18D7F85B90E94F80085B18F7085B921
:1002500085B1C295C07FC82BC5B985B1826085B90B
:1002600085B18D7F85B90E94F800CF91089585B141
:100270008E7F85B985B18F7085B985B1806285B96A
:1002800085B1826085B985B18D7F85B90E94F800FE
:1002900060E088E20E940A0160E086E00E940A01B4
:1002A00060E08CE00E940A0108950F931F93CF93A2
:1002B0008C01C0E004C061E00E940A01CF5FF80138
:1002C000EC0FF11D80818111F6CFCF911F910F911D
:1002D000089561E00E940A01089560E081E00E94B3
:1002E0000A010E94010108950F931F93CF93DF939A
:1002F0008C01EB010E946D01C8010E94550160E074
:1003000080EC0E940A01CE010E945501DF91CF913D
:100310001F910F9108950E945A000E9437010E9478
:1003200060001092A4011092A301E091A301F0914A
:10033000A401E730F105C8F7EC5CFF4F0C946F02A5
:100340000E946D018CE091E00E9455010E948300A3
:10035000833259F781E00E94DE019093A4018093DB
:10036000A301E3CF0E940D029093A4018093A30107
:10037000DCCF60E171E080E291E00E9474010E94B4
:1003800042029093A4018093A301CFCF6EE271E06B
:1003900084E391E00E947401FFCF0E945402FFCFDA
:1003A00069E371E084E391E00E947401FFCF67E4A8
:1003B00071E084E391E00E947401FFCF882341F053
:1003C000813049F486BB0E945F0281E090E008958D
:1003D00080E090E0089580E090E00895CF93DF936F
:1003E0006FE471E086E591E00E947401C0E0D0E026
:1003F0000EC00E9483008A3251F0833241F0FE0128
:10040000E056FE4F80838AE20E9469012196C43043
:10041000D1057CF3DF91CF9108950E94EE0124C0B5
:1004200065E671E080EA91E00E947502892B09F18E
:100430006AE671E080EA91E00E947502892BE1F0A2
:100440006FE671E080EA91E00E947502892BB9F0B5
:100450000E946D0184E791E00E94550181E086BB16
:100460000E945F020E94EE010E9483008332E1F746
:10047000D7CF82E090E0089582E090E0089583E095
:1004800090E0089504C0823349F0833351F00E9414
:1004900083008133C1F784E090E0089585E090E027
:1004A000089586E090E0089563E871E086E891E0C1
:1004B0000E94740185E991E00E945501089510920F
:1004C000800085E08093810085EE98E4909385001C
:1004D00080938400B09BFECF81E086BB0895EE0F31
:1004E000FF1F0590F491E02D0994FB01DC018D9133
:1004F000019080190110D9F3990B0895F894FFCF5A
:100500003132333435363738392A30234F464600B6
:100510007072617A6F20332D4573746F726E6F0045
:10052000312D4120566973746120322D4100616480
:100530006D696E006D6F646F00706167207061722D
:1005400063656C61646F006573746F726E6F0053E6
:10055000656E68613A00446967697465206120735B
:10056000656E686100313233340032333435003027
:100570003132330053454E484120494E56414C4993
:10058000444100522400446967697465206F2076F5
:10059000616C6F72005224203030302C30300000FB
:00000001FF
