S010000050726F6A65746F312E7372656300
S11300000C9444000C9461000C9461000C94610005
S11300100C9461000C9461000C9461000C946100D8
S11300200C9461000C9461000C9461000C946100C8
S11300300C9461000C9492190C9461000C9461006E
S11300400C9461000C9461000C94B6180C9461003B
S11300500C9461000C9461000C9461000C94610098
S11300600C9461000C94610056036C0376038303C3
S11300708A0393039C03A503AC03B303BC03DC030F
S1130080E3030B041204190411241FBECFEFD8E0BC
S1130090DEBFCDBF14E0A0E0B1E0E6EDF8E302C0BE
S11300A005900D92AA37B107D9F725E0AAE7B4E085
S11300B001C01D92AF3EB207E1F70E943F030C94CA
S11300C0691C0C94000014BC109280001092B000C3
S11300D084E0809381008CED9BE090938500809375
S11300E084007894EFE6F0E08081816080838FEF74
S11300F084B98FE387B91AB810927E041092A204CF
S11301001092A0041092A1041092870488B18F7EEB
S113011088B988B18F7D88B9089590939F0480939E
S11301209E0470939B0460939A04509394054093A7
S113013093050895909389048093880470938B04A5
S113014060938A0450939605409395050895EDE5D0
S1130150F5E0108211821282138215A614A681E0A2
S113016090E097A786A7E7E9F5E010821182128252
S1130170138215A614A697A786A780E090E028C04E
S1130180FC01EE0FFF1F9F01220F331F220F331FAD
S1130190220F331FE20FF31FE755FB4F118210822A
S11301A0108611861286138601969C01220F331F36
S11301B0220F331FF901E35AFA4F1082118212827F
S11301C01382F901E956FA4F1082118212821382C6
S11301D08A309105ACF240E050E06EE170E088E0D6
S11301E090E00E948D0046EE57E064E070E08AE003
S11301F090E00E949A0010928D0410928C04109248
S113020086041092850410927E041092A204109227
S1130210A0041092A10408958091930590919405EF
S113022001969093940580939305CC976CF010926B
S113023094051092930580919A0490919B040196E1
S113024090939B0480939A0480919A0490919B04C8
S1130250CC976CF010929B0410929A0480919E04A7
S113026090919F04019690939F0480939E048091A3
S11302709E0490919F0448976CF010929F041092F2
S11302809E04809188049091890401969093890436
S11302908093880480918A0490918B048230910524
S11302A079F5209195053091960523703327232BFA
S11302B0A1F420918804309189042E3131050CF485
S11302C050C021E030E030938904209388040196E3
S11302D090938B0480938A0444C0209188043091C5
S11302E089042D313105ECF121E030E030938904AB
S11302F020938804019690938B0480938A0431C0E0
S11303008430910549F08630910531F089309105AA
S113031019F08B30910599F4209188043091890467
S11303202F313105F4F021E030E03093890420933B
S11303308804019690938B0480938A0412C02091C0
S1130340880430918904203231055CF021E030E0EA
S11303503093890420938804019690938B048093AE
S11303608A0480918A0490918B040D977CF081E03B
S113037090E090938B0480938A04809195059091EA
S1130380960501969093960580939505089580911E
S11303908C0490918D04019749F480918504909187
S11303A08604019690938604809385048091940436
S11303B090919504892B49F080918E0490918F043B
S11303C0019690938F0480938E0480918E04909173
S11303D08F048832910519F08035910519F58091C3
S11303E07E04813029F481E090E00E94CE151AC089
S11303F08091A204813029F482E090E00E94CE151D
S113040011C08091A004813029F483E090E00E941F
S1130410CE1508C08091A104813021F484E090E0DD
S11304200E94CE1580918E0490918F048837910597
S113043071F488B1806188B981E080938704109257
S11304408F0410928E0410929504109294040895CF
S11304501F93CF93DF93C82FD0E010E009C00E9410
S113046076191C1302C0DF5F02C01C2FD0E09C2F42
S1130470D730A8F3892FDF91CF911F910895BF92B0
S1130480CF92DF92EF92FF920F931F93CF93DF935C
S1130490CDB7DEB72C970FB6F894DEBF0FBECDBF35
S11304A08CE0E0E0F1E0DE01119601900D928A9576
S11304B0E1F780E78BB9C12CD12C4CC088B18160A5
S11304C088B988B1826088B988B1846088B988B1F4
S11304D0886088B928B181E090E00E2C02C0880FB2
S11304E0991F0A94E2F78095822388B900E010E00E
S11304F023C029B1A8014C5F5F4F81E090E002C0A6
S1130500880F991F4A95E2F782230E9428028111DD
S113051011C0F701EE0FFF1FEE0DFF1D81E090E00B
S11305208C0F9D1FE80FF91FE00FF11FB080CC2442
S1130530C394D12C0F5F1F4F03301105D4F29FEFEA
S1130540E91AF90A02C0E12CF12C84E0E816F1045E
S11305500CF4B4CFC114D104B1F38B2D2C960FB687
S1130560F894DEBF0FBECDBFDF91CF911F910F91E5
S1130570FF90EF90DF90CF90BF900895CF93C82F56
S1130580611104C085B18E7F85B903C085B18160D6
S113059085B985B18F7085B985B19C2F907F892BE2
S11305A085B985B1826085B985B18D7F85B90E9491
S11305B0801985B18F7085B985B1C295C07FC82B6C
S11305C0C5B985B1826085B985B18D7F85B90E9431
S11305D08019CF91089585B18E7F85B985B18F70CB
S11305E085B985B1806285B985B1826085B985B1E7
S11305F08D7F85B90E94801960E088E20E94BE0266
S113060060E086E00E94BE0260E08CE00E94BE02D0
S113061008950F931F93CF938C01C0E004C061E051
S11306200E94BE02CF5FF801EC0FF11D80818111A1
S1130630F6CFCF911F910F91089561E00E94BE0201
S1130640089560E081E00E94BE020E948919089525
S11306500F931F93CF93DF938C01EB010E9421032F
S1130660C8010E94090360E080EC0E94BE02CE0132
S11306700E940903DF91CF911F910F9108950E9469
S113068063000E94EB020E94A7000E94B915109219
S1130690910410929004E0919004F0919104E0315F
S11306A0F105C8F7EC5CFF4F0C941D1C0E9421035C
S11306B088B18F7E88B988B18F7D88B91092C100C6
S11306C00E943F02833239F781E00E942004909314
S11306D0910480939004DFCF88E98093C1000E9445
S11306E0E9049093910480939004D5CF6CE071E079
S11306F08CE191E00E9428030E9486059093910466
S113070080939004C8CF0E94180990939104809319
S11307109004C1CF0E94E7058AE090E09093910491
S113072080939004B8CF0E94E70589E090E090930D
S1130730910480939004AFCF0E94E7050E94A51214
S11307409093910480939004A6CF0E949D08909367
S11307509104809390049FCF0E94FA129093910485
S11307608093900498CF0E9475070E94A5129093DD
S11307709104809390048FCF80917C0490917D04A8
S1130780009749F40E94390781E090E090937D043A
S113079080937C0480CF019709F07DCF0E94A5123D
S11307A090939104809390040A9709F474CF109263
S11307B07D0410927C046FCF0E949709909391045A
S11307C08093900468CF80917A0490917B04009781
S11307D0A1F481E090E090937B0480937A040E94DA
S11307E0750F9093910480939004892B09F053CF53
S11307F010927B0410927A044ECF019709F04BCFEC
S11308000E94680E909391048093900410927B044C
S113081010927A0440CF0E945213909391048093D3
S1130820900439CF6AE271E08DE291E00E942803DE
S1130830FFCF0E94510A90939104809390042BCF90
S1130840811103C00E942C190895813019F40E946B
S11308500419089580E090E00895AF92BF92CF927A
S1130860DF92EF92FF920F931F93CF938C01069721
S1130870E1F480919004909191048630910529F0DF
S11308808A30910511F0099781F40E94210364E3F1
S113089071E08DE391E00E942803AA24A394B12C73
S11308A0E12CF12CC12CD12C85C00E94210367E4DA
S11308B071E08FE491E00E942803EFCF0E943F0291
S11308C0C82F833211F506301105F9F40E942C1853
S11308D08630910551F40630110539F46894AA2440
S11308E0A1F8B12CEE24E394F12C8730910511F09A
S11308F0892B59F40630110541F40F2EF3E0AF2E85
S1130900B12CF02DEE24E394F12CCA3209F446C044
S1130910C33209F443C00430110551F4F601EF5712
S1130920FB4FC0838AE20E941D038FEFC81AD80AC6
S113093006301105B1F480919004909191048630B1
S1130940910529F08A30910511F0099751F4F601C7
S1130950E357FA4FC0838C2F0E941D038FEFC81AF0
S1130960D80A0630110581F4809190049091910485
S1130970089751F4F601ED55FB4FC0838AE20E94BB
S11309801D038FEFC81AD80AC016D10639F468942B
S1130990AA24A1F8B12CEE24E394F12CCA3251F428
S11309A080E00E942004019729F4A12CB12CEE24AC
S11309B0E394F12CE114F10409F480CFC501CF9143
S11309C01F910F91FF90EF90DF90CF90BF90AF9069
S11309D00895EF92FF920F931F93CF9384E090E0DA
S11309E00E942D04892B19F000E010E002C001E000
S11309F010E0E12CF12C7FC00E943F02C82F8A3204
S1130A0049F480E00E942004019721F4E12CF12CA8
S1130A1001E010E0C33209F06EC06CE571E081E8DA
S1130A2094E00E94591C892BE1F480918B059091EC
S1130A308C05019769F481E090E09093930480938E
S1130A4092046894EE24E1F8F12C01E010E053C024
S1130A5061E671E08EE691E00E9428030E9451193C
S1130A604AC06EE771E081E894E00E94591C892B2A
S1130A70F9F48091C5059091C60581309105C1F4C2
S1130A80019769F482E090E0909393048093920438
S1130A906894EE24E1F8F12C01E010E02CC061E64A
S1130AA071E083E891E00E9428030E94511923C059
S1130AB063E971E081E894E00E94591C892B71F488
S1130AC083E090E090939304809392040F2EF3E0DC
S1130AD0EF2EF12CF02D01E010E00DC00E94210357
S1130AE088E991E00E9409030E945119EE24E394DD
S1130AF0F12C01E010E00115110509F47DCFC701C7
S1130B00CF911F910F91FF90EF900895EF92FF9274
S1130B100F931F93CF93E12CF12C00E010E04CC015
S1130B200E943F02C82F8A3279F480E00E94200498
S1130B30892B29F0E12CF12C01E010E005C0EE2412
S1130B40E394F12C01E010E0C133A1F468EA71E010
S1130B5080EB91E00E9428030E94511981E090E00B
S1130B609093800480937F046894EE24E2F8F12C3F
S1130B7001E010E0C23379F46CEB71E080EB91E0BA
S1130B800E9428030E9451190F2EF5E0EF2EF12C3C
S1130B90F02D01E010E0C33379F464E171E080EBFF
S1130BA091E00E9428030E94511901E010E00F2EE9
S1130BB0F6E0EF2EF12CF02D0115110509F4B0CF5C
S1130BC0C701CF911F910F91FF90EF900895CF929D
S1130BD0DF92EF92FF920F931F93CF93DF93CDB7E2
S1130BE0DEB72C970FB6F894DEBF0FBECDBF1982C7
S1130BF01A821B821C820E94210364EC71E082ED44
S1130C0091E00E942803C12CD12C00E010E0B8C070
S1130C100E943F02F82E43E2841303C0CC24C39401
S1130C20D12C53E2F51609F4ABC00130110511F1D2
S1130C3024F40115110549F0A3C002301105D1F1C6
S1130C400330110509F464C09BC00E94210364ECC5
S1130C5071E082ED91E00E942803E1E0F0E0EC0F06
S1130C60FD1FE00FF11FF0828F2D0E941D030F5F07
S1130C701F4F86C00E94210361EE71E082ED91E076
S1130C800E942803E1E0F0E0EC0FFD1FE00FF11FEC
S1130C90F082F801319781E090E08C0F9D1FE80FFE
S1130CA0F91F80810E941D038F2D0E941D030F5F79
S1130CB01F4F66C00E9421036EEE71E082ED91E049
S1130CC00E942803E1E0F0E0EC0FFD1FE00FF11FAC
S1130CD0F082F801329741E050E04C0F5D1FE40FC1
S1130CE0F51F80810E941D038CE20E941D03F80100
S1130CF0319781E090E08C0F9D1FE80FF91F8081F0
S1130D000E941D038F2D0E941D030F5F1F4F38C0CB
S1130D100E94210369EF71E082ED91E00E942803B3
S1130D20E1E0F0E0EC0FFD1FE00FF11FF082F801AD
S1130D30339741E050E04C0F5D1FE40FF51F8081B5
S1130D400E941D03F801329781E090E08C0F9D1FF3
S1130D50E80FF91F80810E941D038CE20E941D038D
S1130D60F801319741E050E04C0F5D1FE40FF51F8F
S1130D7080810E941D038F2D0E941D030F5F1F4F52
S1130D80C114D10409F444CF20E030E016C0E1E0FE
S1130D90F0E0EC0FFD1FE20FF31F808190E0C0979D
S1130DA0F901EE0FFF1F41E050E04C0F5D1FE40F0F
S1130DB0F51F958384832F5F3F4F243031053CF327
S1130DC08D819E81BC01660F771F880F991F880F44
S1130DD0991F880F991F860F971F6F8178858C0143
S1130DE0060F171F69857A85072E000C880B990B4F
S1130DF00E94F11A20E030E040E251E40E94471AD8
S1130E006B017C01B801110F880B990B0E94F11A38
S1130E10A70196010E94DB196B017C016B857C851F
S1130E20072E000C880B990B0E94F11A20E030E089
S1130E3048EC52E40E94471A9B01AC01C701B60179
S1130E400E94DB196093960470939704809398042E
S1130E50909399042C960FB6F894DEBF0FBECDBFC5
S1130E60DF91CF911F910F91FF90EF90DF90CF9082
S1130E7008950F931F93CF930E94210363E072E0C0
S1130E808FE092E00E94280300E010E027C00E9457
S1130E903F02C82F813381F481E090E090939D0458
S1130EA080939C0463E172E08AE192E00E9428034B
S1130EB00E94511901E010E0C23381F482E090E015
S1130EC090939D0480939C0467E072E08AE192E031
S1130ED00E9428030E94511901E010E00115110538
S1130EE0B1F2CF911F910F9108950F931F93CF9358
S1130EF00E94210367E272E08FE292E00E942803DD
S1130F0000E010E027C00E943F02C82F823381F422
S1130F1068E372E08AE192E00E9428030E9451197A
S1130F2082E090E09093800480937F0401E010E0DD
S1130F30C33381F460E472E08AE192E00E94280302
S1130F400E94511983E090E09093800480937F0481
S1130F5001E010E001151105B1F2CF911F910F913D
S1130F600895EF92FF920F931F93CF93DF93809195
S1130F7087048111D3C00E942C18019709F0A9C0DD
S1130F8068E472E082E592E00E9428030E9451190D
S1130F90C0919004D0919104CE0109970297D0F5A5
S1130FA0009192041091930401301105D1F40F2E95
S1130FB0FDE5EF2EF5E0FF2EF02DF7016081718144
S1130FC082819381209196043091970440919804F2
S1130FD0509199040E94DB19F70160837183828325
S1130FE0938302301105B1F407E915E0F80160813B
S1130FF0718182819381209196043091970440916C
S11310009804509199040E94DB19F801608371835C
S113101082839383C730D10579F5809192049091AE
S11310209304019749F50DE515E0F801E4A4F5A44E
S1131030209196043091970440919804509199041A
S1131040FFEFEF1AFF0AF701EE0FFF1FEE0FFF1F6E
S1131050E35AFA4F2083318342835383F80160813A
S11310607181828193810E94DA19F801608371830E
S113107082839383F5A6E4A6279759F58091920479
S113108090919304029729F5C7E9D5E00CA51DA515
S113109020919604309197044091980450919904BA
S11310A00F5F1F4FF801EE0FFF1FEE0FFF1FE956F2
S11310B0FA4F2083318342835383688179818A8103
S11310C09B810E94DA19688379838A839B831DA795
S11310D00CA70E942C18029741F46CE572E082E69A
S11310E092E00E9428030E9451190E942C18039731
S11310F041F46AEC72E08CE692E00E9428030E94BC
S113110051190E942C18049789F462E772E08FE762
S113111092E00E9428030E94511908C065E872E019
S11311208AE892E00E9428030E945119DF91CF912E
S11311301F910F91FF90EF9008950F931F93CF93FA
S1131140DF930E9421036FE872E08AE992E00E9433
S113115028030E94511984E090E00E942D0400E0CD
S113116010E0C0E0D0E05BC00E943F02833209F08F
S113117056C000919204109193040130110509F5B1
S11311806CE571E081E894E00E94591C892BC9F454
S113119083E090E00E94CE156DEA72E089EB92E064
S11311A00E9428038091A004882321F08091870461
S11311B08823C1F30E94B10702E010E0C1E0D0E04F
S11311C02EC00230110509F56EE771E081E894E064
S11311D00E94591C892BC9F483E090E00E94CE152B
S11311E06DEA72E089EB92E00E9428038091A004EA
S11311F0882321F0809187048823C1F30E94B107DA
S113120002E010E0C1E0D0E00AC00E94210384ECB7
S113121092E00E9409030E94511907E010E0209710
S113122009F4A2CFC801DF91CF911F910F910895C6
S1131230EF92FF920F931F93CF930E94210363EDCC
S113124072E083EE92E00E9428030E9451190E94EA
S1131250210368EE72E086EF92E00E9428030E9468
S11312605119E12CF12C00E010E056C00E943F021D
S1131270C82F813379F466E073E081E193E00E9442
S113128028030E9451190F2EFBE0EF2EF12CF02DB4
S113129001E010E0C23379F461E273E08AE192E0A4
S11312A00E9428030E9451190F2EFCE0EF2EF12C0E
S11312B0F02D01E010E0C33379F461E373E08AE1D7
S11312C092E00E9428030E9451190F2EFDE0EF2E98
S11312D0F12CF02D01E010E0C43379F46CE373E0F9
S11312E08AE192E00E9428030E9451190F2EFFE028
S11312F0EF2EF12CF02D01E010E0CA3269F480E009
S11313000E942004019719F4E12CF12C03C0EE246F
S1131310E394F12C01E010E00115110509F4A6CFC6
S1131320C701CF911F910F91FF90EF900895CF9235
S1131330DF92EF92FF920F931F93CF930E942103AA
S113134067E473E086E593E00E9428030E94511944
S1131350C12CD12C00E010E0E12CF12C2BC00E9418
S11313603F02C82F813371F461E673E08AE192E0B1
S11313700E9428030E945119CC24C394D12CEE243A
S1131380E394F12CC23379F46CE673E08AE192E0E1
S11313900E9428030E9451196894CC24C1F8D12CCE
S11313A0EE24E394F12CCA3229F401E010E0EE2497
S11313B0E394F12CE114F10491F20115110509F003
S11313C062C00E94210367E773E087E893E00E940C
S11313D028030E94511957C00E943F02C82F81332D
S11313E041F581E0C816D10481F465E973E081E632
S11313F093E00E9428030E94511981E090E09093A9
S11314008C0580938B0501E010E082E0C816D104BE
S113141081F465E973E08CE693E00E9428030E945E
S1131420511981E090E09093C6058093C50501E0D1
S113143010E0CA3211F401E010E0C23321F581E07A
S1131440C816D10471F460EA73E081E693E00E9467
S113145028030E94511910928C0510928B0501E00B
S113146010E082E0C816D10471F460EA73E08CE6FF
S113147093E00E9428030E9451191092C60510920D
S1131480C50501E010E00115110509F4A5CF83E0BD
S113149090E0CF911F910F91FF90EF90DF90CF904C
S11314A008952F923F924F925F926F927F928F9204
S11314B09F92AF92BF92CF92DF92EF92FF920F93DF
S11314C01F93CF93DF93CDB7DEB729970FB6F89468
S11314D0DEBF0FBECDBF0E9421036DEA73E08EEB29
S11314E093E00E9428030E945119212C312C00E022
S11314F010E0D0C30E943F0289878A3209F4BCC33A
S1131500813309F0A3C060915D0570915E058091FF
S11315105F05909160052091970530919805409161
S1131520990550919A050E94DB1920E030E048ECBF
S113153052E40E947D1B0E94B91A4B015C010E9477
S113154021036FEC73E08AE192E00E9428030E9479
S113155051190E94210365E074E080EE93E00E943B
S11315602803C501B40120E137E240E050E00E94C5
S1131570FE1B0F2EFAE0CF2ED12CE12CF12CF02DF6
S1131580CA01B901A70196010E94FE1B80E3860FE0
S11315900E941D03C501B40128EE33E040E050E091
S11315A00E94FE1BCA01B901A70196010E94FE1BFD
S11315B080E3860F0E941D03C501B40124E630E0D8
S11315C040E050E00E94FE1BCA01B901A701960148
S11315D00E94FE1B80E3860F0E941D038CE20E9482
S11315E01D03C501B401A70196010E94FE1B698376
S11315F0CA01B901A70196010E94FE1B80E3860F70
S11316000E941D038981805D0E941D0378018985E4
S113161018C00E943F02833219F08A3291F409C043
S11316200F2EFFE02F2E312CF02DEE24E394F12C1D
S113163008C00F2EFFE02F2E312CF02DEE24E39462
S1131640F12CE114F10429F3898701C0780129857B
S1131650223309F017C160915D0570915E05809198
S11316605F059091600520E030E048EC52E40E9470
S11316707D1B0E94B91A69837A838B839C83609152
S11316809705709198058091990590919A0520E0AD
S113169030E048EC52E40E947D1B0E94B91A6D832D
S11316A07E838F8398876EEE73E08AE192E00E94D6
S11316B028030E9451190E9421038FEF93E00E9496
S11316C0090369817A818B819C8120E137E240E0C2
S11316D050E00E94FE1B0F2EFAE0CF2ED12CE12CFD
S11316E0F12CF02DCA01B901A70196010E94FE1B3D
S11316F080E3860F0E941D030F2EF8EE4F2EF3E0B9
S11317005F2E612C712CF02D69817A818B819C81F3
S1131710A30192010E94FE1BCA01B901A70196010F
S11317200E94FE1B80E3860F0E941D030F2EF4E629
S11317308F2E912CA12CB12CF02D69817A818B8173
S11317409C81A50194010E94FE1BCA01B901A70155
S113175096010E94FE1B80E3860F0E941D038CE20B
S11317600E941D0369817A818B819C81A701960166
S11317700E94FE1B6983CA01B901A70196010E9458
S1131780FE1B80E3860F0E941D038981805D0E94F9
S11317901D0360E080EC0E94BE0289E094E00E9498
S11317A009036D817E818F81988520E137E240E0D5
S11317B050E00E94FE1BCA01B901A70196010E94D4
S11317C0FE1B80E3860F0E941D036D817E818F8145
S11317D09885A30192010E94FE1BCA01B901A701C9
S11317E096010E94FE1B80E3860F0E941D036D81FB
S11317F07E818F819885A50194010E94FE1BCA01F8
S1131800B901A70196010E94FE1B80E3860F0E9486
S11318101D038CE20E941D036D817E818F8198855A
S1131820A70196010E94FE1B6983CA01B901A701A1
S113183096010E94FE1B80E3860F0E941D0389818E
S1131840805D0E941D037801898518C00E943F02B3
S1131850833219F08A3291F409C00F2EFFE02F2E43
S1131860312CF02DEE24E394F12C08C00F2EFFE070
S11318702F2E312CF02DEE24E394F12CE114F104FD
S113188029F389873985333309F003C265EB73E0A3
S11318908AE192E00E9428030E94511961E673E0F4
S11318A083E194E00E9428030E9451190E942103BD
S11318B0E12CF12C6801CAC0C70101969A8389837F
S11318C0FC01EE0FFF1FEE0FFF1FE35AFA4F60817A
S11318D071818281938120E030E048EC52E40E94DF
S11318E07D1B0E94B91A2B013C0185E094E00E9403
S11318F00903C301B20128EE33E040E050E00E9446
S1131900FE1B0F2EFAE08F2E912CA12CB12CF02D62
S1131910CA01B901A50194010E94FE1B80E3860F50
S11319200E941D03C301B20124E630E040E050E010
S11319300E94FE1BCA01B901A50194010E94FE1B6D
S113194080E3860F0E941D038CE20E941D03C301E5
S1131950B201A50194010E94FE1B162FCA01B90110
S1131960A50194010E94FE1B80E3860F0E941D03C3
S113197080E3810F0E941D0360E080EC0E94BE02A0
S11319808091890590918A05E981FA818E179F07D4
S11319900CF459C03196EE0FFF1FEE0FFF1FE35AF0
S11319A0FA4F608171818281938120E030E048ECBC
S11319B052E40E947D1B0E94B91A2B013C0185E070
S11319C094E00E940903C301B20128EE33E040E031
S11319D050E00E94FE1BCA01B901A50194010E94B6
S11319E0FE1B80E3860F0E941D03C301B20124E69F
S11319F030E040E050E00E94FE1BCA01B901A5019D
S1131A0094010E94FE1B80E3860F0E941D038CE25A
S1131A100E941D03C301B201A50194010E94FE1B93
S1131A206983CA01B901A50194010E94FE1B80E3E8
S1131A30860F0E941D038981805D0E941D038DE134
S1131A4094E00E940903F2E0EF0EF11C80918905F5
S1131A5090918A05E816F9060CF42ECF86011A82B5
S1131A60198208C00E943F02833221F481E090E091
S1131A709A838983E981FA81EF2BA1F36CE673E001
S1131A8083E194E00E9428030E9451190E942103DB
S1131A90E12CF12C6801CBC097012F5F3F4F3A83B3
S1131AA02983F901EE0FFF1FEE0FFF1FE956FA4FCE
S1131AB0608171818281938120E030E048EC52E4BE
S1131AC00E947D1B0E94B91A2B013C0185E094E021
S1131AD00E940903C301B20128EE33E040E050E064
S1131AE00E94FE1B0F2EFAE08F2E912CA12CB12CFC
S1131AF0F02DCA01B901A50194010E94FE1B80E3E7
S1131B00860F0E941D03C301B20124E630E040E0C9
S1131B1050E00E94FE1BCA01B901A50194010E9474
S1131B20FE1B80E3860F0E941D038CE20E941D03AE
S1131B30C301B201A50194010E94FE1B162FCA0124
S1131B40B901A50194010E94FE1B80E3860F0E9447
S1131B501D0380E3810F0E941D0360E080EC0E945E
S1131B60BE028091890590918A05E981FA818E17D8
S1131B709F070CF459C03196EE0FFF1FEE0FFF1FA5
S1131B80E956FA4F608171818281938120E030E0CF
S1131B9048EC52E40E947D1B0E94B91A2B013C01BF
S1131BA085E094E00E940903C301B20128EE33E00A
S1131BB040E050E00E94FE1BCA01B901A501940156
S1131BC00E94FE1B80E3860F0E941D03C301B20125
S1131BD024E630E040E050E00E94FE1BCA01B90157
S1131BE0A50194010E94FE1B80E3860F0E941D0341
S1131BF08CE20E941D03C301B201A50194010E945D
S1131C00FE1B6983CA01B901A50194010E94FE1B50
S1131C1080E3860F0E941D038981805D0E941D035D
S1131C208DE194E00E940903F2E0EF0EF11C809133
S1131C30C3059091C405E816F9060CF42DCF86016E
S1131C4016C00E943F02833219F08A3281F408C020
S1131C500F2EFFE02F2E312CF02D01E010E007C0F5
S1131C600F2EFFE02F2E312CF02D01E010E0011596
S1131C70110539F378010DC029852A3211F0780154
S1131C8008C00F2EF3E02F2E312CF02DEE24E39418
S1131C90F12C87010115110509F42CCCC1012996F9
S1131CA00FB6F894DEBF0FBECDBFDF91CF911F9169
S1131CB00F91FF90EF90DF90CF90BF90AF909F90E7
S1131CC08F907F906F905F904F903F902F900895EA
S1131CD0AF92BF92CF92DF92EF92FF920F931F9336
S1131CE0CF93DF9300D000D000D0CDB7DEB7E12C86
S1131CF0F12CC12CD12CE3C0E114F10451F40E9465
S1131D00210385E294E00E94090360E080EC0E94D4
S1131D10BE020E943F02182F833209F483C08A3224
S1131D2009F480C086E0E816F1040CF07BC0E1E021
S1131D30F0E0EC0FFD1FEE0DFF1D1083812F0E94BC
S1131D401D038FEFE81AF80A82E0E816F10421F087
S1131D5084E0E816F10419F48AE30E941D0386E086
S1131D60E816F10409F05EC0898190E0C0979C01F7
S1131D70220F331F880F991F880F991F880F991FEF
S1131D80820F931F2A8130E020533109820F931F61
S1131D908831910584F52B8130E020533109A90164
S1131DA0440F551F220F331F220F331F220F331FDF
S1131DB0240F351F4C8150E040535109240F351F27
S1131DC02C333105C4F44D8150E040535109BA011C
S1131DD0660F771F440F551F440F551F440F551F9F
S1131DE0460F571F6E8170E060537109460F571FED
S1131DF04C3351055CF06AEC72E084E394E00E9499
S1131E0028030E945119E12CF12C0CC090939F04DB
S1131E1080939E0430939B0420939A0450939405DA
S1131E2040939305133261F486E0E816F10441F41B
S1131E300F2EF3E0AF2EB12CF02DCC24C394D12C73
S1131E401A32E9F580E00E942004019799F10E947A
S1131E50210385E294E00E94090360E080EC0E9483
S1131E60BE0281E0E81AF10800E010E014C002307C
S1131E70110519F00430110519F48AE30E941D03B9
S1131E80E1E0F0E0EC0FFD1FE00FF11F80810E9404
S1131E901D030F5F1F4F0E151F054CF382E0E8165C
S1131EA0F10421F084E0E816F10449F48AE30E9485
S1131EB01D0305C0A12CB12CCC24C394D12CC11476
S1131EC0D10409F419CFC50126960FB6F894DEBFE4
S1131ED00FBECDBFDF91CF911F910F91FF90EF9077
S1131EE0DF90CF90BF90AF900895AF92BF92CF9202
S1131EF0DF92EF92FF920F931F93CF93DF93CDB7AF
S1131F00DEB728970FB6F894DEBF0FBECDBFE12C25
S1131F10F12CC12CD12C38C1E114F10451F40E94EC
S1131F20210389E394E00E94090360E080EC0E94AD
S1131F30BE020E943F02182F833209F4D8C08A32AD
S1131F4009F4D5C088E0E816F1040CF0D0C0E1E053
S1131F50F0E0EC0FFD1FEE0DFF1D1083812F0E949A
S1131F601D038FEFE81AF80A82E0E816F10421F065
S1131F7084E0E816F10419F48FE20E941D0388E05E
S1131F80E816F10409F0B3C0898190E0C0979C0180
S1131F90220F331F880F991F880F991F880F991FCD
S1131FA0820F931F2A8130E020533109820F931F3F
S1131FB0803291050CF052C02B8130E0205331095E
S1131FC0A901440F551F220F331F220F331F220F65
S1131FD0331F240F351F4C8150E040535109240F07
S1131FE0351F2D303105D4F58D3191050CF441C0E8
S1131FF022303105F1F56D8170E060537109E8EE2E
S1132000F3E06E9FA0016F9F500D7E9F500D112431
S1132010EE81F0E0F097A4E6AE9FB001AF9F700DA3
S11320201124640F751F4F8150E040535109FA0188
S1132030EE0FFF1F440F551F440F551F440F551F2C
S11320404E0F5F1F460F571F688570E0605371097C
S1132050460F571F43705527452B59F06AEC72E021
S113206088E494E00E9428030E945119E12CF12C89
S11320703EC0909389048093880430938B0420930A
S11320808A042D8130E02053310988EE93E0289FA3
S1132090A001299F500D389F500D11242E8130E04E
S11320A02053310964E6629FC001639F900D11249F
S11320B0480F591F2F8130E0C901C097BC01660F3A
S11320C0771F9C01220F331F220F331F220F331F50
S11320D0CB01820F931F840F951F288530E0205376
S11320E03109820F931F90939605809395051332BF
S11320F061F488E0E816F10441F40F2EFCE0AF2E01
S1132100B12CF02DCC24C394D12C1A32E9F580E003
S11321100E942004019799F10E94210389E394E02D
S11321200E94090360E080EC0E94BE0281E0E81A8C
S1132130F10800E010E014C00230110519F0043079
S1132140110519F48FE20E941D03E1E0F0E0EC0FA9
S1132150FD1FE00FF11F80810E941D030F5F1F4FC1
S11321600E151F054CF382E0E816F10421F084E01B
S1132170E816F10449F48FE20E941D0305C0A12C66
S1132180B12CCC24C394D12CC114D10409F4C4CEF1
S1132190C50128960FB6F894DEBF0FBECDBFDF9100
S11321A0CF911F910F91FF90EF90DF90CF90BF9050
S11321B0AF9008950F931F93CF93DF9300E010E047
S11321C0C0E0D0E0B9C1FE01EE0FFF1FCF01880FC0
S11321D0991F880F991F880F991FE80FF91FE7555A
S11321E0FB4F80819181892B09F0A5C180917F04E7
S11321F090918004081719070CF09DC10F5F1F4FC1
S1132200FE01EE0FFF1FCF01880F991F880F991F42
S1132210880F991FE80FF91FE755FB4F81E090E005
S11322209183808380918A0490918B048C309105F2
S1132230E9F401301105D1F4FE01EE0FFF1FCF01C7
S1132240880F991F880F991F880F991FE80FF91F8E
S1132250E755FB4F81E090E0958384838091950559
S11322609091960501969383828398C08C30910552
S1132270E9F402301105D1F4FE01EE0FFF1FCF0186
S1132280880F991F880F991F880F991FE80FF91F4E
S1132290E755FB4F82E090E0958384838091950518
S11322A09091960501969383828378C08C30910532
S11322B0E9F403301105D1F4FE01EE0FFF1FCF0145
S11322C0880F991F880F991F880F991FE80FF91F0E
S11322D0E755FB4F83E090E09583848380919505D7
S11322E09091960501969383828358C08B30910513
S11322F0E9F402301105D1F4FE01EE0FFF1FCF0106
S1132300880F991F880F991F880F991FE80FF91FCD
S1132310E755FB4F81E090E0958384838091950598
S11323209091960501969383828338C08B309105F2
S1132330E9F403301105D1F4FE01EE0FFF1FCF01C4
S1132340880F991F880F991F880F991FE80FF91F8D
S1132350E755FB4F82E090E0958384838091950557
S11323609091960501969383828318C0800F911FE4
S1132370FE01EE0FFF1F9F01220F331F220F331F99
S1132380220F331FE20FF31FE755FB4F958384831E
S1132390809195059091960593838283FE01EE0FBB
S11323A0FF1FCF01880F991F880F991F880F991F4E
S11323B0E80FF91FE755FB4F84819581843091051F
S11323C049F08630910531F08930910519F08B3050
S11323D09105D1F420918804309189042F3131057D
S11323E099F4FE01EE0FFF1FCF01880F991F880F8C
S11323F0991F880F991FE80FF91FE755FB4F8EE1CE
S113240090E09783868367C08230910539F5FE0199
S1132410EE0FFF1F9F01220F331F220F331F220FC6
S1132420331FE20FF31FE755FB4F228133812370E3
S11324303327232B99F4FE01EE0FFF1FCF01880FE2
S1132440991F880F991F880F991FE80FF91FE755E7
S1132450FB4F8DE190E0978386833DC0029739F569
S1132460FE01EE0FFF1FCF01880F991F880F991FE0
S1132470880F991FE80FF91FE755FB4F828193815D
S113248083709927892B99F0FE01EE0FFF1FCF016E
S1132490880F991F880F991F880F991FE80FF91F3C
S11324A0E755FB4F8CE190E09783868314C0FE01CF
S11324B0EE0FFF1FCF01880F991F880F991F880FF8
S11324C0991FE80FF91FE755FB4F809188049091FD
S11324D089049783868360917F0470918004072E1A
S11324E0000C880B990B0E94F11A9B01AC016091BE
S11324F096047091970480919804909199040E9495
S1132500471A9E01220F331FA901440F551F440F80
S1132510551F440F551F240F351FF901E755FB4F75
S113252060877187828793876DE875E0C9018B5452
S11325309B4F0E94621C2196CA30D1050CF443CEF5
S1132540DF91CF911F910F91089586E090E00E9452
S11325502D048230910551F420919004309191041E
S11325602630310531F028E030E005C020E030E0CD
S113257002C027E030E00397D9F580919004909150
S113258091048A309105B9F481E090E00E94CE155F
S11325906DEA72E089EB92E00E94280380917E0448
S11325A0882321F0809187048823C1F30E94B10716
S11325B022E030E01DC00997C9F482E090E00E9457
S11325C0CE156DEA72E089EB92E00E9428038091B7
S11325D0A204882321F0809187048823C1F30E94F8
S11325E0B1070E94DA1022E030E002C022E030E0BD
S11325F0C9010895CF93DF9386E090E00E942D04F3
S1132600892B19F0C0E0D0E002C0C1E0D0E080E046
S113261090E042C00E943F028332E1F580917F0442
S11326209091800481309105B9F481E090E00E949A
S1132630CE156DEA72E089EB92E00E942803809146
S11326407E04882321F0809187048823C1F30E94AB
S1132650B107C1E0D0E01EC002970297C8F482E03F
S113266090E00E94CE156DEA72E089EB92E00E9440
S113267028038091A204882321F080918704882371
S1132680C1F30E94B1070E94DA10C1E0D0E002C099
S1132690C1E0D0E082E090E0209709F4BBCFDF9165
S11326A0CF9108954F925F926F927F928F929F92F3
S11326B0AF92BF92CF92DF92EF92FF920F931F934C
S11326C0CF93DF930FEF1FEF40E050E020E030E0C6
S11326D01BC0F901EE0FFF1FCF01880F991F880F50
S11326E0991F880F991FE80FF91FE755FB4F808149
S11326F09181019739F44F5F5F4F0F3F8FEF1807B8
S113270009F489012F5F3F4F2A30310514F3452B1B
S113271061F46DE474E088E594E00E9428030E946B
S11327205119EE24E394F12C02C0E12CF12C0F2E6C
S1132730F3E0CF2ED12CF02DC0E0D0E09BC1F80106
S1132740EE0FFF1FCF01880F991F880F991F880F65
S1132750991FE80FF91FE755FB4F80819181892B61
S113276009F4DBC00E94210386E694E00E94090379
S11327704801880C991CC401880F991F880F991F60
S1132780880F991F880D991DFC01E755FB4F4F01D8
S1132790608571858285938520E030E048EC52E4C1
S11327A00E947D1B0E94B91ACB0168EE73E00E945F
S11327B0EA1BCB010F2EFAE0AF2EB12CF02DB501A0
S11327C00E94EA1B805D0E941D03F40160857185EF
S11327D08285938520E030E048EC52E40E947D1B22
S11327E00E94B91ACB0164E670E00E94EA1BCB0197
S11327F0B5010E94EA1B805D0E941D038CE20E94C9
S11328001D03F401608571858285938520E030E0A5
S113281048EC52E40E947D1B0E94B91ACB01B50119
S11328200E94EA1BCB01B5010E94EA1B805D0E9455
S11328301D03F401608571858285938520E030E075
S113284048EC52E40E947D1B0E94B91ACB01B501E9
S11328500E94EA1B805D0E941D03F401868197811A
S1132860B5010E94EA1B282FCB01B5010E94EA1B87
S11328700F2EF0E34F2EF02D480E0F2EF0E35F2EB7
S1132880F02D520E84819581B5010E94EA1B282FF8
S1132890CB01B5010E94EA1B0F2EF0E36F2EF02D41
S11328A0680E0F2EF0E37F2EF02D720E828193813D
S11328B0B5010E94EA1B282FCB01B5010E94EA1B37
S11328C00F2EF0E3AF2EF02DA80E0F2EF0E3BF2E47
S11328D0F02DB20E80E20E941D03842D0E941D0380
S11328E0852D0E941D038FE20E941D03862D0E94E8
S11328F01D03872D0E941D038FE20E941D038A2D54
S11329000E941D038B2D0E941D0360E080EC0E9439
S1132910BE0289E694E00E9409030E943F028332CA
S113292069F527C02196FE01EE0FFF1F9F01220FBC
S1132930331F220F331F220F331FE20FF31FE755FC
S1132940FB4F20813181232B31F0CA30D1051CF497
S11329508E0141E050E0CA30D10569F441E050E015
S11329600F2EF3E0CF2ED12CF02DEE24E394F12C96
S113297002C040E050E041155105A1F2803309F056
S11329806DC0F801EE0FFF1F9F01220F331F220FAE
S1132990331F220F331FE20FF31FE755FB4F118242
S11329A010824281538120919505309196054217FA
S11329B05307D1F5F801EE0FFF1F9F01220F331FBC
S11329C0220F331F220F331FE20FF31FE755FB4F74
S11329D04481558120918A0430918B044217530716
S11329E061F5F801EE0FFF1F9F01220F331F220F25
S11329F0331F220F331FE20FF31FE755FB4F4681AE
S1132A005781209188043091890442175307F1F4C7
S1132A1098B19F7D98B90F2EFDE0CF2ED12CF02DCB
S1132A20EE24E394F12C1AC00F2EFDE0CF2ED12C0E
S1132A30F02DEE24E394F12C11C00F2EFDE0CF2EE7
S1132A40D12CF02DEE24E394F12C08C00F2EFDE0E0
S1132A50CF2ED12CF02DEE24E394F12C8A3251F4B4
S1132A6080E00E942004019729F4C12CD12CEE248B
S1132A70E394F12CE114F10409F461CEC601DF9171
S1132A80CF911F910F91FF90EF90DF90CF90BF9067
S1132A90AF909F908F907F906F905F904F9008952C
S1132AA0CF93DF93C0E0D0E05DC0FE01EE0FFF1FC7
S1132AB0CF01880F991F880F991F880F991FE80F5E
S1132AC0F91FE755FB4F80819181892B09F449C097
S1132AD0FE01EE0FFF1FCF01880F991F880F991F6A
S1132AE0880F991FE80FF91FE755FB4F22813381A7
S1132AF080919505909196052817390791F5FE0167
S1132B00EE0FFF1FCF01880F991F880F991F880FA1
S1132B10991FE80FF91FE755FB4F248135818091F8
S1132B208A0490918B0428173907D9F4FE01EE0F1B
S1132B30FF1FCF01880F991F880F991F880F991FB6
S1132B40E80FF91FE755FB4F2681378180918804F0
S1132B50909189042817390721F484E090E00E94B9
S1132B60CE152196CA30D1050CF49FCFDF91CF91B9
S1132B70089583E38093C4001092C50088E980938C
S1132B80C100E2ECF0E0808186608083089580914A
S1132B90C0008823E4F78091C60008958F929F9225
S1132BA0AF92BF92CF92DF92EF92FF920F931F9357
S1132BB0CF93DF93CDB7DEB764970FB6F894DEBF3B
S1132BC00FBECDBF8C0181E090E09093950480937B
S1132BD0940420E030E048EC52E460919604709153
S1132BE0970480919804909199040E947D1B0E94FF
S1132BF0B91A6B017C010230110509F46FC024F489
S1132C000130110551F028C10330110509F4CCC07D
S1132C100430110509F425C11FC181E080937E04AD
S1132C2086E589838A8380E090E017C0FC013296B0
S1132C30DC01A357BA4F2C9141E050E04C0F5D1FCB
S1132C40E40FF51F2083FC013896DC01AD55BB4F22
S1132C502C91E40FF51F208301968630910534F3FF
S1132C60C701B60128EE33E040E050E00E94FE1BAD
S1132C700F2EFAE08F2E912CA12CB12CF02DCA012D
S1132C80B901A50194010E94FE1B80E3860F8F8782
S1132C90C701B60124E630E040E050E00E94FE1B8C
S1132CA0CA01B901A50194010E94FE1B80E3860FAD
S1132CB0888BC701B601A50194010E94FE1B162F43
S1132CC0CA01B901A50194010E94FE1B80E3860F8D
S1132CD0898B105D1A8B8DE08B8BBEC081E0809355
S1132CE0A20486E5898380E58A8380E090E017C0AA
S1132CF0FC013296DC01A357BA4F2C9141E050E01D
S1132D004C0F5D1FE40FF51F2083FC013896DC0196
S1132D10AD55BB4F2C91E40FF51F208301968630EF
S1132D20910534F380917F04805D8F87C701B601DC
S1132D3028EE33E040E050E00E94FE1B0F2EFAE044
S1132D408F2E912CA12CB12CF02DCA01B901A50113
S1132D5094010E94FE1B80E3860F888BC701B60195
S1132D6024E630E040E050E00E94FE1BCA01B901B5
S1132D70A50194010E94FE1B80E3860F898BC70185
S1132D80B601A50194010E94FE1B162FCA01B901C8
S1132D90A50194010E94FE1B80E3860F8A8B105DBF
S1132DA01B8B8DE08C8B58C081E08093A00485E45C
S1132DB0898386E58A8380E090E00EC0FC01329628
S1132DC0DC01A357BA4F2C9141E050E04C0F5D1F3A
S1132DD0E40FF51F20830196863091057CF3C7012B
S1132DE0B60128EE33E040E050E00E94FE1B0F2EB7
S1132DF0FAE08F2E912CA12CB12CF02DCA01B9012F
S1132E00A50194010E94FE1B80E3860F8987C701F8
S1132E10B60124E630E040E050E00E94FE1BCA0107
S1132E20B901A50194010E94FE1B80E3860F8A87E5
S1132E30C701B601A50194010E94FE1B162FCA0109
S1132E40B901A50194010E94FE1B80E3860F8B87C4
S1132E50105D1C878DE08D8740E050E020E030E07D
S1132E60CCC081E08093A10481E4898380E58A83D6
S1132E7020E030E06CC0F901EE0FFF1FCF01880F96
S1132E80991F880F991F880F991FE80FF91FE7559D
S1132E90FB4F428153818091950590919605481787
S1132EA0590709F052C0F901EE0FFF1FCF01880F37
S1132EB0991F880F991F880F991FE80FF91FE7556D
S1132EC0FB4F4481558180918A0490918B0448176B
S1132ED05907D9F5F901EE0FFF1FCF01880F991F8C
S1132EE0880F991F880F991FE80FF91FE755FB4FAB
S1132EF04681578180918804909189044817590725
S1132F0021F51EC0BA016E5F7F4FF901EE0FFF1F5E
S1132F10CF01880F991F880F991F880F991FE80FF9
S1132F20F91FE755FB4FE40FF51F8485E1E0F0E05E
S1132F30EC0FFD1FE60FF71F80834F5F5F4F02C04A
S1132F4040E050E046305105ECF22F5F3F4F2A300D
S1132F5031050CF490CFC701B60128EE33E040E010
S1132F6050E00E94FE1B0F2EFAE08F2E912CA12C14
S1132F70B12CF02DCA01B901A50194010E94FE1BD8
S1132F8080E3860F8987C701B60124E630E040E07C
S1132F9050E00E94FE1BCA01B901A50194010E94E0
S1132FA0FE1B80E3860F8A87C701B601A501940141
S1132FB00E94FE1B162FCA01B901A50194010E94AB
S1132FC0FE1B80E3860F8B87105D1C878DE08D8749
S1132FD043CF8091C00085FFFCCFE1E0F0E0EC0F2F
S1132FE0FD1FE20FF31F80818093C60080818D3026
S1132FF011F441E050E02F5F3F4F4115510549F373
S113300064960FB6F894DEBF0FBECDBFDF91CF91AB
S11330101F910F91FF90EF90DF90CF90BF90AF90F2
S11330209F908F90089580917E04813011F41092C6
S11330307E048091A204813011F41092A204809144
S1133040A004813011F41092A0048091A104813075
S113305011F41092A104089588B18F7E88B98091EB
S1133060DB058F3431F48091DC058B3411F40E943C
S113307013188091DB05833449F48091DC05863490
S113308041F40E94131822E030E005C021E030E052
S113309002C021E030E08091DB05833541F480916A
S11330A0DC05863421F40E94131823E030E080917B
S11330B0DB05833541F48091DC05893421F40E94D9
S11330C0131824E030E08091DB05803591F4809181
S11330D0DC058E3471F48091A104813041F41092A6
S11330E0A10488B1806288B925E030E002C025E0FF
S11330F030E09091DB059334B9F48091DC058D3494
S113310099F40BC0F901E352FA4F8081F901E357B6
S1133110FA4F80832F5F3F4F02C020E030E026301B
S1133120310584F326E030E09334F1F48091DC053A
S11331308735D1F412C0FC01E352FA4F2081FC011F
S1133140E357FA4F2083FC01ED51FA4F2081FC0133
S1133150ED55FB4F2083019602C080E090E086305D
S113316091054CF327E030E0C90108951F920F92B6
S11331700FB60F9211240F931F932F933F934F93E6
S11331805F936F937F938F939F93AF93BF93CF93EB
S1133190DF93EF93FF9300E010E0C0E0D0E00CC0B9
S11331A00E94C715FE01E953FA4F80838D3011F058
S11331B0219602C001E010E00115110589F367ECC6
S11331C075E08BED95E00E94621C109295041092BC
S11331D0940410928F0410928E040E942C18FF9174
S11331E0EF91DF91CF91BF91AF919F918F917F919B
S11331F06F915F914F913F912F911F910F910F907C
S11332000FBE0F901F90189587E088B981E090E079
S113321090938D0480938C0420E030E008C080916A
S1133220850490918604029711F421E030E04E99D0
S113323003C02115310599F310928D0410928C046A
S11332401092860410928504232B19F480E090E0F8
S1133250089581E090E0089587E088B981E090E0E6
S113326090938D0480938C0420E007C080918504A2
S113327090918604029709F421E04C9902C022231C
S1133280A9F310928D0410928C041092860410926B
S11332908504211103C080E090E0089581E090E06E
S11332A0089581E090E090938D0480938C041092B3
S11332B086041092850420E030E00CC080918504DF
S11332C090918604039731F485EF91E00E940903FD
S11332D021E030E02115310589F310928D0410921C
S11332E08C041092860410928504089584E085BDB0
S11332F082EC86BDA89BFECF85B3816085BB089513
S113330082E085BD80EB86BDA89BFECF81E085BBB6
S1133310089584E085BD89E986BDA89BFECF81E040
S113332085BB08951F920F920FB60F9211242F930D
S11333303F934F935F936F937F938F939F93AF9339
S1133340BF93EF93FF938CED9BE090938500809364
S113335084000E940C010E94C70180919E049091F8
S11333609F048C30910529F08231910511F0469724
S113337071F480919A0490919B04892B41F480917B
S1133380930590919405892B11F40E94501581E0C6
S113339086BBFF91EF91BF91AF919F918F917F91E8
S11333A06F915F914F913F912F910F900FBE0F90AE
S11333B01F9018955058BB27AA270E94F2190C9405
S11333C0431B0E94351B38F00E943C1B20F039F44B
S11333D09F3F19F426F40C94321B0EF4E095E7FB9E
S11333E00C942C1BE92F0E94541B58F3BA17620744
S11333F073078407950720F079F4A6F50C94761BDF
S11334000EF4E0950B2EBA2FA02D0B01B9019001FB
S11334100C01CA01A0011124FF27591B99F0593F3F
S113342050F4503E68F11A16F040A22F232F342F87
S11334304427585FF3CF469537952795A795F040D5
S11334405395C9F77EF41F16BA0B620B730B840BEA
S1133450BAF09150A1F0FF0FBB1F661F771F881FA2
S1133460C2F70EC0BA0F621F731F841F48F48795FA
S113347077956795B795F7959E3F08F0B0CF9395EC
S1133480880F08F09927EE0F9795879508950E9465
S11334905B1A0C94431B0E943C1B58F00E94351B82
S11334A040F029F45F3F29F00C942C1B51110C942B
S11334B0771B0C94321B0E94541B68F39923B1F3BD
S11334C0552391F3951B550BBB27AA276217730746
S11334D0840738F09F5F5F4F220F331F441FAA1FDA
S11334E0A9F335D00E2E3AF0E0E832D09150504096
S11334F0E695001CCAF72BD0FE2F29D0660F771F44
S1133500881FBB1F261737074807AB07B0E809F029
S1133510BB0B802DBF01FF2793585F4F3AF09E3FAE
S1133520510578F00C942C1B0C94771B5F3FE4F34B
S1133530983ED4F3869577956795B795F7959F5FF1
S1133540C9F7880F911D9695879597F90895E1E03D
S1133550660F771F881FBB1F621773078407BA079C
S113356020F0621B730B840BBA0BEE1F88F7E095F7
S113357008950E94C01A6894B1110C94771B0895A1
S11335800E945C1B88F09F5798F0B92F9927B75178
S1133590B0F0E1F0660F771F881F991F1AF0BA95F3
S11335A0C9F714C0B13091F00E94761BB1E00895C0
S11335B00C94761B672F782F8827B85F39F0B93FB2
S11335C0CCF3869577956795B395D9F73EF49095A6
S11335D08095709561957F4F8F4F9F4F0895E89424
S11335E009C097FB3EF490958095709561957F4F47
S11335F08F4F9F4F9923A9F0F92F96E9BB279395F5
S1133600F695879577956795B795F111F8CFFAF404
S1133610BB0F11F460FF1BC06F5F7F4F8F4F9F4F35
S113362016C0882311F096E911C0772321F09EE893
S1133630872F762F05C0662371F096E8862F70E0F9
S113364060E02AF09A95660F771F881FDAF7880FD3
S11336509695879597F9089597F99F6780E870E0A4
S113366060E008959FEF80EC089500240A941616F4
S1133670170618060906089500240A94121613065C
S1133680140605060895092E0394000C11F48823EA
S113369052F0BB0F40F4BF2B11F460FF04C06F5F06
S11336A07F4F8F4F9F4F089557FD9058440F551FDC
S11336B059F05F3F71F04795880F97FB991F61F0B0
S11336C09F3F79F087950895121613061406551F27
S11336D0F2CF4695F1DF08C0161617061806991F93
S11336E0F1CF86957105610508940895E894BB2788
S11336F066277727CB0197F908950E94901B0C94B5
S1133700431B0E94351B38F00E943C1B20F095237C
S113371011F00C942C1B0C94321B11240C94771B69
S11337200E94541B70F3959FC1F3950F50E0551FF1
S1133730629FF001729FBB27F00DB11D639FAA2702
S1133740F00DB11DAA1F649F6627B00DA11D661F51
S1133750829F2227B00DA11D621F739FB00DA11D72
S1133760621F839FA00D611D221F749F3327A00D2C
S1133770611D231F849F600D211D822F762F6A2FC8
S113378011249F5750409AF0F1F088234AF0EE0F2D
S1133790FF1FBB1F661F771F881F91505040A9F75A
S11337A09E3F510580F00C942C1B0C94771B5F3FBB
S11337B0E4F3983ED4F3869577956795B795F79596
S11337C0E7959F5FC1F7FE2B880F911D969587950E
S11337D097F9089597FB072E16F4009407D077FD08
S11337E009D00E94231C07FC05D03EF490958195D6
S11337F09F4F0895709561957F4F0895052E97FB0F
S11338001EF400940E94151C57FD07D00E94371C1B
S113381007FC03D04EF40C94151C5095409530953C
S113382021953F4F4F4F5F4F089590958095709528
S113383061957F4F8F4F9F4F0895EE0FFF1F0590A7
S1133840F491E02D0994AA1BBB1B51E107C0AA1FE8
S1133850BB1FA617B70710F0A61BB70B881F991F2D
S11338605A95A9F780959095BC01CD010895A1E2E0
S11338701A2EAA1BBB1BFD010DC0AA1FBB1FEE1FE6
S1133880FF1FA217B307E407F50720F0A21BB30B31
S1133890E40BF50B661F771F881F991F1A9469F7AD
S11338A060957095809590959B01AC01BD01CF0109
S11338B00895FB01DC018D91019080190110D9F369
S11338C0990B0895FB01DC0101900D920020E1F7B2
S10938D00895F894FFCFF7
S11338D63132333435363738392A30235072617AE7
S11338E66F20332D4573746F726E6F00312D412036
S11338F6566973746120322D410031340065737446
S113390661646F0043617274616F3A20004E756D95
S113391665726F20646F0053656E68613A200044D7
S113392669676974652053656E68610031323334A2
S1133936006465736162696C697461646F004F70D9
S1133946657261646F72203120657374610032336D
S11339563435004F70657261646F7220322065736E
S1133966746100303132330053454E484120494E8C
S113397656414C49444121004120766973746100E3
S113398653656C63696F6E61646F3A0041205072CF
S1133996617A6F0052242020202020202020202C11
S11339A62000446967697465206F2076616C6F72C4
S11339B60052242020202020202020202C005224C5
S11339C620202020202020200052242020202020D7
S11339D620200032202D204372656469746F003103
S11339E6202D2044656269746F0053656C656369B4
S11339F66F6E61646F3A0032206F7520333A00505F
S1133A06617263656C617300322076657A65730052
S1133A16332076657A6573004546455449564144D4
S1133A264F00504147414D454E544F0046414C4886
S1133A364100434F4E544120434F4D0053454E4899
S1133A464100494E535546494349454E5445005352
S1133A56414C444F00434F4D2E004552524F007384
S1133A6675612073656E68612E004F7065726164BE
S1133A766F722C20636F6E6669726D650052657392
S1133A86706F7374612E2E2E0041677561726461C6
S1133A966E646F0053454E484120494E56414C4989
S1133AA644410041646D696D696E69737472616441
S1133AB66F72004D6F646F00332D50656E64203451
S1133AC62D52656C2E00312D4F5020322D446174D9
S1133AD6612F487220004F70657261646F7265735E
S1133AE6004861622F4465736162696C697461722E
S1133AF600416C746572617220446174612F48726E
S1133B060050656E64656E636961730052656C612D
S1133B16746F72696F7300312D4F5045312C20320A
S1133B262D4F5045320053656C6563696F6E653A77
S1133B36004F70657261646F722031004F70657258
S1133B4661646F7220320032202D204465736162F5
S1133B56696C697461720031202D20486162696C58
S1133B666974617200486162696C697461646F00AA
S1133B764465736162696C697461646F004F706552
S1133B86722E20332D4573746F726E6F7300312D50
S1133B9644696120617475616C20322D502F005286
S1133BA6656C61746F72696F20646F20646961006B
S1133BB6546F74616C20646F206469613A005265C5
S1133BC66C61746F72696F20702F204F5045004FDF
S1133BD65045313A20522420004F5045323A205263
S1133BE62420004573746F726E6F733A0020202090
S1133BF62020233E00446967697465206120686F4C
S1133C0672613A00484F52410044696769746520FD
S1133C166120646174613A004441544100456E6315
S1133C266F6E7472616461004E656E68756D6120B5
S1133C3650656E642E0052240064657361623A30E6
S10D3C4620202070726F783A2300EA
S9030000FC
