:100000000C9434000C9449000C9449000C94490061
:100010000C9449000C9449000C9449000C9449003C
:100020000C9449000C9449000C9449000C9449002C
:100030000C9449000C9449000C9449000C9449001C
:100040000C9449000C9449000C9449000C9449000C
:100050000C9449000C9449000C9449000C944900FC
:100060000C9449000C94490011241FBECFEFD8E036
:10007000DEBFCDBF11E0A0E0B1E0E0ECF1E002C0F6
:1000800005900D92A031B107D9F70E94C3000C94DE
:10009000DE000C94000082E085BD80EB86BDA89B4D
:1000A000FECF81E085BB089584E085BD89E986BDEA
:1000B000A89BFECF81E085BB0895CF93C82F611127
:1000C00004C085B18E7F85B903C085B1816085B9D3
:1000D00085B18F7085B985B19C2F907F892B85B9AB
:1000E00085B1826085B985B18D7F85B90E944B004D
:1000F00085B18F7085B985B1C295C07FC82BC5B950
:1001000085B1826085B985B18D7F85B90E944B002C
:10011000CF91089585B18E7F85B985B18F7085B9EE
:1001200085B1806285B985B1826085B985B18D7FE1
:1001300085B90E944B0060E088E20E945D0060E0AB
:1001400086E00E945D0060E08CE00E945D00089502
:100150000F931F93CF938C01C0E004C061E00E9415
:100160005D00CF5FF801EC0FF11D80818111F6CFAA
:10017000CF911F910F91089560E081E00E945D0092
:100180000E945400089584B1816084B984B1826072
:1001900084B984B1806184B984B1806284B984B146
:1001A000806484B984B1806884B90E948A000E9406
:1001B000BC0080E091E00E94A800FFCFF894FFCF40
:1001C00046554E43494F4E412043415241494F000D
:00000001FF
